:020000040000FA
:06000000020A780201AFC4
:030013000201D215
:03002B000208C305
:03003B0002022797
:030053000200E0C8
:100083000201440101FF01010503010F10FEFFF608
:1000930012F612F612F612B211AC11F612ED1E00A0
:1000A300000000B11F000000000C0000000C000164
:1000B300FFFF010200B405000000270664000202EE
:1000C30000002000050207051E02051E020A0A039E
:1000D300B80B02803E0102150014020206C0E07450
:1000E300F212046FA2AFE433FED2AFE5A7FFE5A19E
:1000F300F5085F541060061219D475A1EFE5085F87
:10010300540860081219DA75A1F7802BEFA2E0C03A
:10011300D0E508A2E092F01209B2158182F05017DF
:10012300906198E0F89007F7E0C398A2D265D033C6
:100133005002E8F075A1FEEEA2E092AF7F01020447
:10014300CEC0E074F212046FA2AFE433FED2AF90DC
:1001530061A4E0F8759B00E5915854086008759117
:10016300F7121A1C802AE59158541060087591EF14
:10017300121A22801BE8A2E0C0D0E591A2E092F01F
:100183001209B2158182F05007E0C2E0F0121B6041
:100193009061A3E0F8E5E9585404600E121B36752C
:1001A300E9FB906193E0A2E640F2808BC0E074F239
:1001B30012046FA2AFE433FED2AF9061A5E0F8E57D
:1001C300BF585404600675BFFB121B7802013AC086
:1001D300E0C0D0E8C0E0E9C0E0C082C083E5C1C0B0
:1001E300E0900763E0F874E228F58274063400F5C2
:1001F30083D0E0F0900762E0F8A3E0687006E5952D
:10020300900765F0900763E004F0C394804002E434
:10021300F0A374C6F0D083D082D0E0F9D0E0F8D058
:10022300D0D0E032C0E0C0D0E8C0E0C008C009C010
:1002330082C0839007E6E0F8A3E0687008539AFB56
:10024300A374018026C2E99007E6E0F5087401254E
:1002530008F074662508F58274073400F583E0F529
:10026300C19007E6E0C394804002E4F0D083D082DB
:10027300D009D00880A6C3E498F8E499F91202BA29
:100283008026C3E49AFAE49BFBE920E7E91202BA69
:10029300E498F8E499F922C3E498F8E499F912028E
:1002A300BAE498F8E499F9C3E49AFAE49BFB22EBE5
:1002B30020E7CFE920E7E0B90010BB0008E88AF0A7
:1002C30084F8AAF022E4FBC8FA22EB70227B10C860
:1002D30033C8C933C9335007C39AC3DBF280069AC4
:1002E30050012ADBEAC833F4C8C933F4C9FA2275CA
:1002F300F008E4C833C8C933C933C99AC99B500449
:10030300C92AC93BD5F0ECFBC833F4C8E4C9FA22C7
:10031300080808EAC0E0EBC0E086F0E7A4FA180991
:1003230086F0E7A42AFA180986F0E7A42AFA18093E
:1003330086F0E7A42AFA1986F0E7A4FBE5F02AFA87
:10034300190886F0E7A42BFBE5F03AFA190886F0C2
:10035300E7A42BFBE5F03AFA18180986F0E7A4C5E1
:10036300F02BFBE43AFA1908E7C5F0C6A426F6E534
:10037300F03BFBE43AFA1886F0E7A4F6E5F008262A
:10038300F6E43B08F6E43A08F6D0E0FBD0E0FA22C4
:10039300E4CFC0E0E4CEC0E0E4CDC0E0E4CCC0E014
:1003A30075F020C3E633F608E633F608E633F608BD
:1003B300E633F6181818EC33FCED33FDEE33FEEF9D
:1003C30033FFC3EC9709ED9709EE9709EF971919D6
:1003D30019400FFFEC97FC09ED97FD09EE97FE1905
:1003E3001906D5F0BEECF709EDF709EEF709EFF7BB
:1003F300191919D0E0FCD0E0FDD0E0FED0E0FF22D7
:100403002518C582C0E0E51934FFC583C0E0E518AF
:10041300C3958224F810AF08858319858218800854
:10042300858319858218D2AFCEF0A3E520F0A37897
:1004330008E608F0A3DEFAEFF0A3E58124FAF8E674
:1004430008F0A3E608F0A3E608F0A30808E608F01E
:10045300A3E608F0A315811581D0E0FED0E0F815DE
:100463008115811581E8C0E0EEC0E022C0D02518D7
:10047300C582C0E0E51934FFC583C0E0E518C39524
:100483008224F310AF088583198582188008858339
:1004930019858218D2AFC8F0A3E9F0A3EAF0A3EB61
:1004A300F0A37908E709F0A3D8FAECF0A3EDF0A3E1
:1004B300EEF0A3EFF0A3D0E0F0A3D0E0F0A3D0E000
:1004C300F0A3E520F0A3E5F0F0A3228519838518B6
:1004D30082E0C0E0A3E0F9A3E0FAA3E0FBA378087D
:1004E300E0F608A3DFFAE0FCA3E0FDA3E0FEA3E04F
:1004F300FFA3E0C0E0A3E0C0E0A3E0F5D0A3E0F5F4
:1005030020A3E0A3F5F010AF088583198582188036
:1005130008858319858218D2AFD082D083D0E0F8C2
:10052300D0E032120ADAB90003020568E49003014D
:1005330078B5790B8002F0A3D8FCD9FA900DB5AA4F
:1005430082AB83900086785B79018015E493A3AC3A
:1005530082AD838A828B83F0A3AA82AB838C828D44
:1005630083D8E9D9E775829A7583C8740312083B67
:100573007582F475831D740012083B0E0075F0102C
:100583008E1A8F1B85821F85831E8518828519838A
:10059300E0CEA3E0CF851F82851E83EBC9EAC8EDB9
:1005A300CBECCAC3E833C8E933C9EA33CAEB33CB6C
:1005B300C3EA9EF51DEB9FF51CB35004AB1CAA1DAB
:1005C300EC33CCED33CDD5F0DAAE1AAF1B22D083AA
:1005D300D082ECC0E0EDC0E0E493A3FCE493A3FD80
:1005E300ED4C600D1206A9EC24FFFCED34FFFD80F9
:1005F300EFE493A3FCE493A3FDED4C600D120746D7
:10060300EC24FFFCED34FFFD80EFD0E0FDD0E0FCF7
:10061300E493A3C0E0E493C0E022851983851882A4
:10062300E0A3FEE0A3F5207808E0A3F608DFFAE0F4
:10063300A3FFE0A3C0E0E0A3C0E0E0A3C0E0E0A329
:10064300C0E0E0A3C0E010AF08858218858319805D
:1006530008858218858319D2AFD083D082020841DE
:10066300D083D082E9C0E0E493A3C386F0C5F095BC
:10067300F0F908E493A386F0C5F095F0700BE493CA
:10068300A3C3994005E9048002A3E475F002A425FD
:1006930082F582E5F03583F583D0E0F9E493A3C0D6
:1006A300E0E493C0E022C0E0C3E4939608740193AE
:1006B3009618400FE49366700808740193661870E7
:1006C300007019A3A3C3E49396087401939618A327
:1006D300A3400DD0E0D0E0D0E002060DA3A3A3A376
:1006E300A3A3D0E0227404800474028000CCC0E091
:1006F300EDC0E0E518C39CCCAD1950011D10AF0649
:100703008C188D1980068C188D19D2AF1207BDD0A5
:10071300E0FDD0E0FC2274028000CCC0E0EDC0E03C
:10072300E518C39CCCAD1950011D10AF068C188D74
:100733001980068C188D19D2AF12079BD0E0FDD01B
:10074300E0FC22C0E0C0F088F0E49366700808740F
:10075300019366187000A8F0A3A3700BD0F0D0E04B
:10076300D0E0D0E002060DA3A3D0F0D0E022D083E6
:10077300D082CCC0E0E493A3600612081C1470FA84
:10078300E493A3600612090D1470FAD0E0FCE4931D
:10079300A3C0E0E493C0E022CAC0E0E493A3C5820F
:1007A300CCC582C583CDC583F0A3C582CCC582C524
:1007B30083CDC583DAE5D0E0CA22CAC0E0E0A3C591
:1007C30082CCC582C583CDC583F0A3C582CCC58247
:1007D300C583CDC583DAE6D0E0CA22C008C3E0965C
:1007E300F50808A3E096420808A3E096420808A388
:1007F300E09645087001D3D0082270090808082242
:100803006016181818C6C333C608C633C608C633DD
:10081300C608C633C6D5E0EA22C0E0E493A3D39C5E
:100823005010E493A3C39C400AD0E0D0E0D0E00290
:10083300078EA3A3A3D0E022C09FF59FE473D09FAC
:1008430022D083D082C09FE493C0E0740193C0E0C0
:10085300740293F59F222518F58210AF08F518400E
:100863000215198008F51840021519D2AF851983AE
:10087300227404800A74038006740280027401C027
:10088300E0F404120859D0E0120AB522C0D02518AA
:1008930010AF08F518500205198008F51850020525
:1008A30019D2AFD0D022BB0102E722C082C0838914
:1008B300828A83BB0003E08002E493D083D0822248
:1008C300C0E0C0D0E8C0E0E5A8D2AFC2C7A2E792BB
:1008D300AFD0E0F8D0D0D0E0326016080808C6C325
:1008E30013C618C613C618C613C618C613C6D5E052
:1008F300EA22C3E0C696F608A3E0C696F608A3E08C
:10090300C696F608A3E0C696F622C0E0E493A36C6D
:100913007009D0E0D0E0D0E002078EA3A3D0E0229C
:10092300251810AF08F518400215198008F518406E
:10093300021519D2AF22E76670100809E766700A3C
:100943000809E76670040809E76622C3E09608A36E
:10095300E09608A3E09608A3E096A2D265D03322DE
:10096300E066701008A3E066700A08A3E0667004EE
:1009730008A3E06622C3E096F008A3E096F008A37C
:10098300E096F008A3E096F022E026F608A3E0360E
:10099300F608A3E036F608A3E036F622E627F608C3
:1009A30009E637F60809E637F60809E637F622C0FE
:1009B300E0E8C0E0E58124FCF8E6A2E7D0E0F8D067
:1009C300E022700422600D18C6C333C608C633C6BE
:1009D300D5E0F41822E657F60809E657F60809E6C3
:1009E30057F60809E657F622E056F608A3E056F64E
:1009F30008A3E056F608A3E056F622E056F008A353
:100A0300E056F008A3E056F008A3E056F022E647CC
:100A1300F60809E647F60809E647F60809E647F641
:100A230022E026F008A3E036F008A3E036F008A39E
:100A3300E036F022E4C396F608E496F608E496F668
:100A430008E496F622C6F4C608C6F4C608C6F4C679
:100A530008C6F4C622C3E7960809E7960809E7968D
:100A63000809E79622C3E09608A3E09608A3E09658
:100A730008A3E0962275D000758140751801751999
:100A83000300020526E0F608A3E0F608A3E0F60853
:100A9300A3E0F622600C08C6C313C618C613C6D556
:100AA300E0F422E6F008A3E6F008A3E6F008A3E6E4
:100AB300F022CAC0E0E6F0A308DAFAD0E0FA22E0B6
:100AC300FAA3E0FBA3E0FCA3E0FD22EAF0A3EBF032
:100AD300A3ECF0A3EDF022E5C754F84401F5C77980
:100AE30001222518F582E43519F58322C2AF75D6A4
:100AF3009F0200002212084447E202120844EAE27D
:100B0300021208441EE4021208443CE402120844A0
:100B13000B22001208441D22001208446F22001207
:100B23000844D022001208445A2300120844FE232A
:100B3300001208445224001208446B240012084493
:100B4300912400120844CC240012084410250012FA
:100B53000844372500120844882500120844382623
:100B630000120844F02600120844B8270012084473
:100B7300782800120844BC2800120844E128001217
:100B83000844242900120844712900120844E72A62
:100B9300001208446D2B001208448B2B00120844EA
:100BA300B52B00120844CF2B00120844DE2B001291
:100BB3000844E92B00120844A92C00120844022D12
:100BC30000120844C42D00120844CC2D001208441E
:100BD300602E00120844CC2E00120844F72F001296
:100BE30008441C3000120844A1300012084430317C
:100BF30000120844F431001208441332001208446E
:100C03002233001208443433001208449F33001285
:100C13000844C9330012084450340012084489348C
:100C230000120844D53400120844E8350012084481
:100C33000C380012084417380012084422380012F6
:100C430008442D380012084437380012084442384B
:100C5300001208445C380012084466380012084445
:100C63007038001208447B3800120844A33800127D
:100C73000844FE38001208440839001208442C398D
:100C830000120844503900120844AE3900120844D7
:100C9300F239001208440E3A00120844853A001251
:100CA3000844BD3A00120844093B00120844663B5D
:100CB30000120844203C00120844043E0012084479
:100CC3005D3E001208448D3F00120844B33F0012FA
:100CD30008442D4100120844B844001208448A46CF
:100CE3000012084453480012084400490012084403
:100CF300744A00120844134B00120844584B001264
:100D03000844C24B00120844D14B00120844514E10
:100D130000120844FA4F00120844675000120844B6
:100D2300465100120844695200120844D15300127C
:100D33000844F053001208444554001208444A552D
:100D430000120844725500120844CA5500120844A0
:100D5300A95600120844ED560012084438570012F1
:100D63000844A35700120844E858001208444C5999
:100D7300001208449A5A00120844015D0012084404
:100D8300325D00120844EA5E001208443F5F00121D
:100D93000844436000120844E060001208443961CB
:100DA30000120844EC61001208448E6200120844E9
:100DB3002E6300120844D363001208445A800112C0
:100DC3000844998001120844E082011208442A83EE
:100DD30001120844458401120844AD8401120844F9
:100DE300E28401120844568601120844D98801128C
:100DF3000844028A01120844B58A01120844119377
:100E030001120844A693011208448D960112084466
:100E1300869701120844F497011208443A99011283
:100E23000844199A01120844FE9B011208440F9EBC
:100E330001120844679E01120844399F01120844B5
:100E4300679F0112084424A001120844FBA0011269
:100E53000844C2A10112084466A2011208448FA2E9
:100E630001120844B1A20112084407A50112084463
:100E7300DFA50112084423A6011208448BA6011220
:100E8300084443A70112084475A701120844B9A7EF
:100E930001120844EFA7011208443BA801120844B9
:100EA30090A80112084495A801120844E8A8011269
:100EB30008440DA9011208441CAA0112084480AA7F
:100EC30001120844F0AA011208447CAB0112084441
:100ED30049AE011208442DAF01120844B0B001120B
:100EE3000844E6B20112084494B30112084444B41E
:100EF3000112084485B60112084428B701120844B8
:100F03006FB7011208441BB9011208442FB901122B
:100F1300084439B90112084461B9011208446DB992
:100F2300011208448CB901120844ACBB01120844F5
:100F3300FBBC011208443FBD01120844E7BD011286
:100F43000844CABE0112084475BF01120844C1C057
:100F530001120844BFC10112084465C201120844CA
:100F630006C3011208441DC30112084454C30112ED
:100F730008445EC30112084469C30112084487C3CD
:100F830001120844CBC30112084428C401120844C7
:100F93004DC40112084467C401120844F3C401128A
:100FA300084410C6011208446CC60112084453C712
:100FB300011208447AC701120844EEC7011208441B
:100FC30069C8011208446DC90112084463CA0112B9
:100FD300084412CB0112084425CC01120844C1CCA9
:100FE3000112084443CD0112084421CE01120844E2
:100FF30059CE01120844B1CE011208447ACF01122E
:1010030008449BCF0112084422D00112084446D061
:101013000112084468D001120844B1D001120844F7
:10102300C7D201120844AAD3011208445BD40112A7
:10103300084491D601120844E1D60112084421D78D
:101043000112084463D701120844BFD701120844B0
:10105300EDD70112084411D80112084464D80112D3
:10106300084492D801120844CBD80112084420D96D
:101073000112084486D901120844F0DA0112084427
:1010830013DD0112084480DD01120844A9DD0112B9
:10109300084434DE011208449BDE01120844E6DEF4
:1010A300011208440ADF011208442EDF011208442A
:1010B30089DF01120844A4DF011208445DE0011234
:1010C30008442CDC031208446BDC031208447880C8
:1010D30002120844BE80021208449E810212084490
:1010E300A08202120844A383021208442F8502122D
:1010F30008448D85021208444A8602120844688710
:1011030002120844D98702120844158802120844BF
:101113006388021208446D8802120844B1880212DF
:1011230008440D8902120844A88902120844258A3A
:1011330002120844F48A021208448D8B02120844F6
:10114300AD8B02120844E38B02120844148C021282
:101153000844D58C02120844E58C02120844398DE8
:1011630002120844548D02120844668D0212084488
:101173006F8D02120844C98D02120844258E021293
:101183000844718E021208448C8E02120844BD8EEC
:1011930002120844DA8E02120844E68E0212084450
:1011A3005A9002120844739002120844DA90021211
:1011B3000844ED9002120844FB9002120844AF91D8
:1011C30002120844939202120844999302120844AB
:1011D3002394021208442D94021208449A94021292
:1011E3000844B19402120844E394021208441C9583
:1011F30002120844469502120844A79502120844B5
:10120300C79502120844E595021208442B96021270
:1012130008445197021208449E9702120844CD973E
:10122300021208444398021208446B9802120844BD
:10123300A49802120844B298021208440A990212AE
:101243000844599902120844989902120844C8990B
:1012530002120844F49902120844FF990212084446
:101263001D9A02120844DF9A02120844E99A0212F4
:1012730008442A9B021208447F9B02120844939B52
:1012830002120844909C02120844A39C02120844D0
:10129300B89C021208445A9D02120844DD9D0212B2
:1012A30008449B9E02120844A69E02120844D29F41
:1012B30002120844EE9F0212084440A0021208449E
:1012C3007FA00212084494A002120844F6A002125E
:1012D300084485A102120844D0A10212084421A4A3
:1012E300021208449FA40212084414A502120844DF
:1012F30036A7021208444EA70212084451A702124D
:1013030008445DA70212084471A70212084479A792
:1013130002120844ACA7021208445CA80212084453
:10132300D2A80212084445A902120844F9A90212DC
:101333000844AEAA02120844CDAA0212084473ABB1
:10134300021208449EAB02120844A1AB02120844E5
:101353000BAC0212084433AD021208440BAE021266
:10136300084496AE02120844AFAF021208446CB0B0
:1013730002120844A5B002120844D6B0021208446F
:1013830094B102120844C4B1021208449FB202127B
:10139300084438B302120844C3B30212084474B4B5
:1013A30002120844F7B40212084429B50212084491
:1013B3006AB502120844C98C031208442E8D031225
:1013C3000844668D03120844DBD502120844D78F04
:1013D30003120844BA9103120844189503120844EF
:1013E3004D95031208446F9503120844D4950312D4
:1013F30008440A96031208442D96031208445A9689
:1014030003120844B69603120844D1F302120844A7
:1014130052F40212084488F402120844EFF4021250
:101423000844FAE0021208447EF602120844C3F6A6
:101433000212084451F702120844AAF702120844A0
:10144300DEF802120844ACF90212084424FA02122C
:101453000844A0FA02120844E2FA0212084423FBE9
:101463000212084457FC0212084455FD02120844B4
:1014730080FD02120844CBFD0212084412FE021240
:101483000844A4FE021208445DFF0212084443A06C
:10149300031208448FA003120844FDA0031208445A
:1014A3001EA103120844CEA103120844D7A10312BC
:1014B30008442AA20312084453A203120844BAA2FE
:1014C300031208444BA3031208448DA303120844D8
:1014D300D7A30312084436A40312084462A40312D8
:1014E3000844F3A40312084432A50312084471A567
:1014F30003120844A6A503120844B8A5031208441E
:10150300CAA503120844E9A503120844F2A503126D
:101513000844A8A603120844E8A603120844BED848
:101523000312084433CD0312084469CD031208445F
:10153300B2CD0312084402CF031208441F64001201
:1015430008445E65001208449A650012084459670E
:1015530000120844826700120844156A0012084406
:10156300596A00120844E26B001208447A6C0012B4
:101573000844E26C00120844836D00120844C56DF0
:1015830000120844056E00120844906F00120844CC
:1015930000710012084425730012084453730012AB
:1015A30008447A73001208448373001208440A74CF
:1015B300001208442877001208444DDD0312084442
:1015C30063DD03120844E1DB031208440FB803127E
:1015D300084422B803120844BFB803120844FAB8F7
:1015E3000312084415B9031208443AB90312084414
:1015F3007FB903120844B0B903120844E1B90312D6
:10160300084467BB0312084431DA031208446EDA54
:1016130003120844B0DA03120844C0DA0312084480
:10162300E7CA0312084468CB0312084407CC031229
:10163300084482CC03120844F2CC0312084400800D
:10164300031208444580031208442E810312084400
:10165300C781031208441182031208446E820312E5
:101663000844C78203120844F98203120844F7832B
:10167300031208445B84031208447684031208446B
:10168300C58403120844DB8403120844E88403126C
:1016930008441C85031208446E8503120844C88558
:1016A30003120844168603120844388603120844BA
:1016B300AF8803120844DD88031208446D890312BE
:1016C3000844E28903120844E78903120844238A81
:1016D30003120844828A03120844228B031208442B
:1016E300478B03120844518B03120844548B031293
:1016F3000844DD8B03120844F88B031208440B8C57
:1017030003120844468C03120844498C031208440C
:10171300548C03120844908C0312084494DB031284
:101723000844ACDB03120844A97700120844F87795
:10173300001208449A7900120844567B00120844A8
:101743009E7B00120844867C00120844B77D001279
:101753000844D97D00120844357E00120844B97E3E
:101763000012084497E001120844B8E0011208444B
:1017730035E101120844BAE10112084436E20112CC
:1017830008449FE201120844EBE2011208446AE3B1
:1017930001120844FCE30112084488E401120844DE
:1017A300CAE40112084413E90112084493EA01123E
:1017B3000844D2EA01120844B9EB01120844BCEB15
:1017C3000112084470EC01120844A5ED011208440B
:1017D30090EF0112084410F201120844C9F20112F9
:1017E3000844E6F3011208443DF7011208444DF79B
:1017F30001120844AEF8011208443AF901120844F0
:101803006EFA011208445FFB01120844E1FB011266
:10181300084463E4021208441DE5021208448FE5FC
:10182300021208442BE6021208449BE60212084403
:1018330054E9021208442BEA0212084498EA0212FD
:10184300084415EC02120844C9EC0212084477ED6F
:1018530002120844D2ED0212084442EE0212084476
:101863000BF0021208441EF102120844B7F10212EF
:1018730008447DF202120844F1FF02120844F3FF08
:101883000212084465CF0312084496CF031208449A
:1018930050D003120844B6D00312084419C90312E6
:1018A300084422DD0312084433DD031208443FD108
:1018B300031208444DD1031208446DDD031208449A
:1018C300CADA03120844DADA03120844F2DA03121A
:1018D30008443ADB03120844BCD70312084441D836
:1018E30003120844A5D803120844F9FF011208445F
:1018F3007DD50312084492D50312084406D6031279
:10190300084420D60312084433D60312084441D6B0
:10191300031208445BD6031208447BD6031208441F
:1019230074BB0312084482BB03120844FCBB0312BA
:101933000844D4BC031208445FBE03120844A4BE87
:1019430003120844F2BE031208448FBF0312084473
:101953003AC00312084452C003120844CEC0031213
:101963000844E4C003120844F7C00312084405C145
:101973000312084411A70312084466A7031208447C
:1019830062A90312084494A903120844B6A90312D6
:101993000844CFA903120844E8A903120844F2AA91
:1019A300031208448DAB03120844F7D20312084410
:1019B3001CD3031208442CD3031208445FD303122D
:1019C300084490D303120844C5D30312084427D410
:1019D3000312084436D40312084440D403120844C3
:1019E30049C1031208446FC103120844ACC1031276
:1019F3000844BBC103120844DAC10312084442C2BB
:101A0300031208444BC203120844AAC20312084437
:101A1300CEC2031208448DC3031208449AC30312AF
:101A23000844ABC303120844B9DC03120844D6DCF0
:101A330003120844AAB00312084408B2031208446C
:101A430015B20312084428B20312084447B2031222
:101A530008445DB20312084471B203120844F4B29D
:101A63000312084457B303120844DEB303120844B5
:101A73003CB4031208444CB40312084498D903122B
:101A83000844BCD903120844E4D9031208440CDA0D
:101A930003120844D9C30312084400C403120844C0
:101AA30021C40312084486C4031208443FC6031228
:101AB300084458C60312084464C60312084478C68F
:101AC3000312084496C603120844A0C6031208442E
:101AD300AAC603120844BDC6031208440EC7031264
:101AE300084447C70312084476C703120844C4C70F
:101AF3000312084413C8031208442EC803120844EF
:101B030038C80312084449C8031208448FC8031293
:101B1300084443DB031208440297031208442E9738
:101B2300031208444A97031208445D9703120844BA
:101B3300739703120844DF970312084412980312A1
:101B43000844419C03120844679D031208449A9D6C
:101B530003120844E69D031208441F9F031208441E
:101B6300479F031208445C9F031208446C9F0312AF
:101B73000844B09F0312084405A00312084415A0AB
:101B8300031208444AD40312084465D403120844D8
:101B93008ED403120844A8D403120844CDD40312EC
:101BA3000844ECD40312084404D50312084432D584
:101BB300031208444CD50312084475DC031208448D
:101BC30079FC0112084480FC011208448CFD0112C7
:101BD3000844BCFD01120844E2FD0112084405FE5D
:101BE3000112084427FE0112084461FE0112084451
:101BF300C7FE0112084400FF011208444CFF011202
:101C0300084479FF0112084499FF01120844B0D631
:101C130003120844C8D603120844B6D70312084473
:101C2300B9D703120844ED7E001208445F7F001207
:101C330008449D7F00120844DE7F001208445BB411
:101C4300031208447AB403120844C9B403120844C3
:101C5300E5B40312084416B50312084423B503126E
:101C6300084430B5031208441CB6031208445AB69C
:101C7300031208446AB70312084475B703120844F1
:101C830087B70312084490B7031208449AB70312A4
:101C93000844CCAB03120844ECAF03120844FAAF78
:101CA30003120844F5DC0312084421D40212084449
:101CB300D1D10212084458D102120844FFD00212B3
:101CC30008448FD00212084466D00212084446CE5C
:101CD3000212084412CE02120844DFCD0212084455
:101CE300C3CD02120844D2CC021208448ACC021299
:101CF3000844D5CA0212084455CA0212084452CAFB
:101D03000212084452C90212084420C902120844AC
:101D13005DC80212084488C6021208443EC6021275
:101D2300084410C6021208440DC602120844A5DE78
:101D33000212084445DE02120844FDDD0212084483
:101D43006FDD0212084462DD02120844FAC5021272
:101D53000844A5C50212084494C5021208445CDA7B
:101D6300021208448AC40212084420C4021208441E
:101D7300CEC3021208446FC302120844BED7021234
:101D8300084462F6021208443EC30212084406C025
:101D930002120844C6BF02120844BABF0212084422
:101DA3001ABF021208445ABE02120844DCBB0212D4
:101DB30008446DB9021208442BB902120844FFB754
:101DC30002120844B4B702120844F3B602120844DC
:101DD300C6B60212084409B602120844D9B5021263
:101DE300084487D6021208449FB502120844B58DF1
:101DF3000300000080FBE47300013636010100019B
:101E030002010001030100010401060605020000AE
:101E1300070100340801000F090401010D0100FF4F
:101E23000E08000017020000190100FF1A0100014B
:101E33001B0100FE1C0100081D0200001F01000120
:101E430020010001210200002301000F24020000F1
:101E53002601000127010008280200FF2A010007CC
:101E63002B0102402C0100002D0100012E01000175
:101E73002F0100FF30010B1C310800003A0100085C
:101E83003B01000F2F0100000302710230016002C9
:101E930011027002010202020202800210026102B8
:101EA3003A004100630273027202620243020002BB
:101EB30013023800000200020402120200020002B0
:101EC3000002000204020402370037003C0244020D
:101ED300000239000002000265020002350281029D
:101EE3000002050282028302000203007100300136
:101EF30060001100700031022003500480001000C4
:101F0300610000001400630073007200620043006C
:101F1300000013000600000000000400120000008F
:101F230000000000000004000400370037003C02FA
:101F330044000000000000000000650000003500C0
:101F43008100000005000000830000000304710409
:101F53000204600411047004020402040104020474
:101F6300100461040004140463047304720462041F
:101F730043040004130406040004000404041204CC
:101F8300000400040004000451046400000400047D
:101F93000004440400040004000400046504000475
:101FA3003504810464000504000483040004010370
:101FB300710301030103010301030103220302036C
:101FC30001031003000300030003000300030003E5
:101FD3000003420300032403060300030003040376
:101FE300120325032303250323030403040300032C
:101FF30000030003440300030003230300036503FA
:1020030021003503810300030503000300030003DC
:1020130001017101010101011101010131010101FD
:1020230001018001100161013B0014006301730190
:102033007201620143010001130106013D013500F4
:102043000401120100010001000100010401040167
:10205300330133013C014401320136000001000128
:102063006501000135008101000105018201830141
:10207300000136000100060000000F000000000010
:10208300000000000000000003FFFF00000403FF46
:10209300FF0000FFFF0FF4010005C404032000014B
:1020A30000000B000000000000000003010F00000F
:1020B3002A181300CA1701002A1802008217030006
:1020C300881704008E17050094170600A017110047
:1020D300BE171400C4171500B217FFFF0000010458
:1020E3000E06340E082E0E0B400E10800D020A0E43
:1020F30005220E07100E0CE60D0DF80DFF00000370
:10210300EAF5E5D5D5C5B5A5959585857575656557
:1021130055554545353525251515050C123C121227
:1021230012181236122A122412421248124E125A4E
:10213300121E120612001200160F00000B150B02DE
:102143000002220F32000006F61208130E13D611F6
:102153001413D011DC1110110A1146114C11401146
:10216300F81050136E137413561362135C1330304C
:1021730016181920231A1C1E300C0E020B040B0A0E
:102183000708000F00383C3E363B3B352B432C30D1
:102193003017181921301B1D1F300001191618168E
:1021A300161523030000034948424D18172505025D
:1021B30044131A1320132C132613301254126813CA
:1021C300601266120204020101010109021C1122BC
:1021D300111611521100000000000028113A1100DD
:1021E300BE040A150004007F00E8030C0028000069
:1021F300000000090308100C0A0308090004000189
:10220300FF1E1E0C05040F08C082C0838A828B83C5
:10221300E0D2E7F01216E6023380C082C083790071
:102223001226D7125247C082C083900334124492BD
:10223300D083D082C3E09CA3E09D500C125A78FA5D
:10224300A3E012224E600109023380FBEA75F00B12
:10225300A4FAA8F075F00BEBA428FB900336E02A50
:10226300F8A3E03B8882F583E0540F2274F712044D
:102273000389081226D712277DACF075F00BE9A469
:102283002CF9900336E028FEA3E039FF74016508BA
:1022930060067402650870208A828B831227691294
:1022A300344A74026508701B1226281227B0701373
:1022B3008E828F83E4F0800BEA2403FCEB12274B1E
:1022C300122757EEFAEFFB120B100233B374F4121A
:1022D30004031263A679008E828F83E06076890AF5
:1022E300890B8065E50A75F00BA4FAA8F075F00B6D
:1022F300E50B12225B7046E50A75F00BA4F8AAF011
:1023030075F00BE50B12278F8E828F83E085088291
:10231300850983122871850882850983A312344AAB
:10232300EE2403FCEF122754123092124E32AA0805
:10233300AB09120B107901900334124841E50A24CA
:1023430001F50AE50B3400F50B122630E50A9AE590
:102353000B9B4090024A6F74F5120403EAFEEBFFF5
:10236300740B120AE5123390750A01EC4D602BECE5
:102373001263C2ED1252471234417901120B1CE56C
:10238300084509606F850882850983A31263B079C4
:1023930002AA08AB09120B1C805AE5084509602BF9
:1023A3001253AF123A8012309312279A700CEEFA3E
:1023B300EFFB120B22E9F50A80CBEE2403FA122677
:1023C300D270317903EEFAEFFB80CA8E828F83A33A
:1023D300E064FE7003A3E0F4700BEE24030A0A0A20
:1023E3001226D2700CEEFAEFFB120B22E9F50A80EB
:1023F30003750A00A90A7F0302061D74F71204037A
:102403009003341233C3EA4B602FEA75F00BA4FA3E
:10241300A8F075F00BEBA428FBEAFEEBFF121530D6
:102423009003361233C39003361246866012EEFCD5
:10243300EFFD790012149A8007900336E4F0A3F0BD
:102443000233B3900334123DF0C3EE98EF9922C0E8
:1024530082C083EC4D6005121C3880097C087D0026
:10246300790012149A02338074F61204037900EA95
:102473004B6018780088081256E7EB125A74600410
:102483007901780808E8C3940840EA022E5374F7E8
:1024930012040374F3120923ECFEEDFF8518828501
:1024A3001983E4F004120AE5EAF0A3EB124BBB74C0
:1024B30003120AE5AC82AD83EEFAEFFB120B34EEA6
:1024C300FAEFFB120B3A0233AE74F712040374F300
:1024D300120923ECFEEDFF851882851983E4F0EAE7
:1024E300FCEBFD7403120AE512286A7401120AE573
:1024F30012343D8E828F8312344A74FE68700374E3
:10250300FF6960047901800279000233AE74F71227
:102513000403EAFEEBFF12256E70141225798E82F6
:102523008F83E0F4F88A828B83E058F0120B10A9B2
:10253300080233B374F7120403EAFEEBFF750800D5
:102543008E828F83E0602212256E701D1225798A98
:10255300828B83E08F838E82F8E058700CE0F88AD8
:10256300828B83E048F0120B1080C4120B16E9F53E
:102573000874016508221263BB1227811226C3FA6D
:10258300A3E039FB2274F41204038A088B097C004C
:102593007D001226281227571226E81263AD790010
:1025A300850882850983A3E064FE7003A3E0F460D9
:1025B300717E007F008062EEFAEF12224E6057EECA
:1025C300FAEFFBEA75F00BA4FAA8F075F00BEBA495
:1025D30028FB900336E02AF50AA3E03BF50B8508B8
:1025E30082850983A3124B09850A82850B83A3E0A5
:1025F3006A7003A3E06B701EE50A2403FAE50B126D
:1026030026D3700AE50A2403FCE50B12275412268D
:10261300DC79011253B6122FB5122630EE9AEF9BD6
:102623004095024A6FEA24030A0A0AEB2290033414
:10263300124F98C32274F31204038A088B098A8207
:102643008B83A31263B01226D71263AD750C0012ED
:1026530026281226D370547E007F0080491226B5A7
:10266300FAA3E0398A82F583E0540F60361226B567
:10267300F50AA3E039F50BE50A2403FCE50B122761
:102683005E3400FB121C32E964017017850A8285EF
:102693000B83A3125059A312344A1226DC750C0182
:1026A3001253B6122FB512244640B2A90C7F05026D
:1026B300061DEEF8EFF9E875F00BA4F81226C32215
:1026C300AAF075F00BE9A42AF9900336E02822EF6B
:1026D3001227AA221263C1EB221226E812309CEEC3
:1026E300F0A3EFF022E5081263C2E5092274F512A4
:1026F3000403EAFEEBFF8E828F83A31263B07C0098
:102703007D00EE24030A0A0AEF122757EEFAEFFBC5
:10271300120B16E9F50A7401650A70291263BB12DC
:10272300277DAAF075F00BE912278F850882F583C0
:1027330012276912279A700DE5082403FCE5091294
:10274300274B1227570223F73400FDEE2403FAEF39
:102753002212275E3400FB120B34223400FDE508FD
:102763002403FAE50922A312276E2212277222E01C
:10277300F8A3E0F98E828F83A322122781223400EB
:10278300F583123DF4E875F00BA4F8221226C9F57F
:1027930008A3E039F50922E8F0A3E9F0E5082403EA
:1027A300FAE5091227AA221227B06401223400FB9A
:1027B300120B3AE92274F312040374E6120923128A
:1027C30063A6750C01750800750900750A00750B81
:1027D30000851882851983E4F0EE2403FCEF3400AE
:1027E300FD7403120AE512286AE964017023740B6D
:1027F300120AE51234417401120AE5124B0D7003FB
:10280300A3E06960518518828519838582088583D1
:1028130009740D120AE5E4122871740E120AE51206
:10282300344A740D120AE5AA82AB83120B58E96489
:1028330001700B740D120AE585820A85830B780AF1
:1028430012087CAC08AD09EEFAEFFB120B287402F8
:1028530012088FE9F50CEEFAEFFB120B52A90C7478
:102863001A12088F0226B0122B5B120B5E22123350
:10287300BE123DF022C082C083780079008003122B
:102883002968122630E89AE99B5029E8FAE9FBEA1D
:1028930075F00BA4FAACF075F00BEBA42CFB9003D2
:1028A30036E02AFCA3E03B8C82F583E0540F70CF23
:1028B300790080027901023380C082C0839021E6CF
:1028C300123E46EC75F012A4FCA8F075F012EDA4CC
:1028D30028FD79FF7A5D7B0812149A02338074F71E
:1028E300120403E9FEEAFF7A007B00780079008096
:1028F30028E8FCE9FDEC75F012A4FC85F00875F0FE
:1029030012EDA42508122D9BC39E400AE0FCEFC3E1
:102913009C4003122E8A122968122D8F40D3023352
:10292300B3C082C08378007900800312296812291A
:102933005C501F122D9FF470F2E875F012A4F8AAF0
:10294300F075F012E9A42AF9745D28FA740839FBCA
:1029530080047A007B000233809021E6122E58C354
:10296300E89AE99B22E8240108E93400F92274F08B
:1029730012040374F31209238A0A8B0B8C0C8D0D3A
:102983008908EC450D6016AA0CAB0D120BAC8A0E30
:102993008B0FAE0EAF0FEE4F6003022A2F120B8286
:1029A3008A0E8B0FA80EA90FE8FEE9FFE849607CA9
:1029B3009021F4122AAF6022740365086006740440
:1029C300650870167A047903120B7C9021F4122A9D
:1029D300C640077A007B00022AAC9021F2122AAF8C
:1029E300601B74016508600674026508700F7A0243
:1029F3007901120B7C9021F2122AC650D6851882D7
:102A03008519837401F0120AE5124E32AC0CAD0D38
:102A13007403120AE5122B54740B120AE51233875E
:102A23001237FDE4124E1A1210508004EE4F606804
:102A3300780074FF2508C39404500278048E828FB3
:102A430083124E328E828F83A3A3A3A3E508F0E8FB
:102A53008E828F83A3A3A3A3A3124E3A1202B2E8DA
:102A63008E828F83A3A3A3A3A3A3A3A31235E1748D
:102A7300011235E1A3F0EE2410125244E4F0A31244
:102A830031F0A3F0123092E4F0908043120AC2EEC8
:102A9300240C125244120ACE122AB44005900DB9E6
:102AA300E4F0120F2AEEFAEFFB023DFA124F4E4901
:102AB300227A047900120B7C9021E6125A5AEA9882
:102AC300EB9922122ADF7583217582E6E493C3987A
:102AD300F8A3E49399F9C3EA98EB9922E493F87481
:102AE3000193F92274F212040374F31209238A087E
:102AF3008B09ECFEEDFF750A00EEFAEFFB120BAC4F
:102B03008A0C8B0DA80CA90DE849603E8882898345
:102B1300E065087004A3E06509602F88828983A3B8
:102B2300A3A3A3E0C39405502112525D85188285A7
:102B330019837401F0120AE5125261EEFCEFFD7481
:102B430003120AE5122B54750A01A90A740D0248EF
:102B5300F8122B5B120B6A22AA82AB83120B348509
:102B63001882851983AA82AB832274F61204031296
:102B73002BA9600FA3A3A3A3E014C3940450047967
:102B83000180027900022E5374F6120403122BA95A
:102B9300600FA3A3A3A3E014C3940250047901809C
:102BA300027900022E53120BA68A828B83E582459B
:102BB300832274F6120403122BA9600BA3A3A3A30D
:102BC300E07004790180027900022E53C082C08331
:102BD300EAFCEBFD7A007B0002337DC082C0837C7C
:102BE300007D0002337D74F412040374F31209238D
:102BF300EAFEEBFF8C0A8D0BC3EC94F8ED94FF40D7
:102C030007EE4F7003022CA2750800750900802E91
:102C13008518828519837401F0122FDD120AE512DB
:102C23002FEB60137403120AE5AC82AD83EEFAEF67
:102C3300FB121C32E97049E5082401122E3B902156
:102C4300E6E4125CE2E50898E509995052E5087557
:102C5300F012A4F8AAF075F012E509A42AF9125AA1
:102C63008D60D4EE4F70A974FF650A700474FF651C
:102C73000B60C4122FCD650A7004A3E0650B70B717
:102C8300E50875F012A4F508A8F075F012E509A49B
:102C930028F509745D2508FA74083509FB80047A60
:102CA300007B00024A6A74F412040374F3120923CA
:102CB300750800120BAC8A0A8B0BAE0AAF0BEE4FF2
:102CC300602A85188285198374011233B8F8A3E04A
:102CD300F9740B120AE51234C5120B4C7C127D00F9
:102CE30079FFEEFAEFFB12149A750801122AB45019
:102CF30009900DB97401F0120F2AA908024A6A74E7
:102D0300F7120403E9FE74FE6A700374FF6B780024
:102D1300790070058052122968122D8F504AE8FC01
:102D2300E9FDEC75F012A4FCAFF075F012EDA42FE1
:102D3300122D9BF460E0E8FCE9FDEC75F012A4FCB5
:102D430075F012EDA42FFD745D2CF58274083DF52A
:102D530083E06A7003A3E06B70BC8009122D9F149B
:102D6300C39404401712296812295C5018EE70ECC2
:102D7300122D9F64016005E0640370E9122FBEFA0F
:102D8300A3E0FB80047AFE7BFF0233B39021E612BB
:102D93003E4AC3E89CE99D22122EBF22E8FAE9FBD2
:102DA300EA75F012A4FAACF075F012EBA42CFB74E4
:102DB300612AF58274083BF583E022120BBE0233CD
:102DC30080C082C083790180F274F01204038A0AFE
:102DD3008B0B7A047901120B7C8A0C8B0DEA450D5F
:102DE300603EEAC333FAEB33FB1215308A088B09D2
:102DF300AE08AF09EE4F60237AFE7BFF120BC4745B
:102E0300FE6A700374FF6B601B8508828509831259
:102E130033C3E5082402122E3B80E1750C008004C5
:102E23007E007F00850A82850B83E50CF0EEFAEFC6
:102E3300FB023DFFE5082407F508E5093400F50921
:102E4300229021E6123E4AC3EA9CEB9D2212088F90
:102E53007F0202061DE493FA740193FB22C082C031
:102E6300837A007B00800419122E8A122E4450109C
:102E7300122EA9C3940550F0E970EC122E9380042E
:102E83007A007B00023380EA24010AEB3400FB2240
:102E9300EA75F012A4FA75F012EBA428FB745D2A0C
:102EA300FA74083BFB22EAFCEBFDEC75F012A4FC80
:102EB300A8F075F012EDA428122EBF22FD74612C28
:102EC300F58274083DF583E02274F712040374F36A
:102ED3001209237E007F00022F71E50875F017A405
:102EE300F8A9F0125CF5FAA3E0FBEEF8EFF9E87548
:102EF300F012A4F8ACF075F012E9A42C122FCC6AEE
:102F03007003A3E06B603FE50875F017A4F8AAF01F
:102F1300EA125CF4F8A3E0F97401120AE5E06870C0
:102F230003A3E0696020E50875F017A4F8EAF974D3
:102F3300D928FC740939FD7403120AE5AA82AB830C
:102F4300121C32E96014E50875F017A4F8A9F074AF
:102F5300D728FA740939FB12105C05089021F9E4AB
:102F630093F8E508C3985003022EDD122FB5902184
:102F7300E612603B5039EEF8EFF9122FBEF47003FE
:102F8300A3E0F460E68518828519837401F0EEF8F6
:102F9300EFF9E875F012A4F875F012E9A42AF91212
:102FA3002FDD120AE5122FEB60C175080080AD0218
:102FB30033AEEE24010EEF3400FF22E875F012A4C5
:102FC300F8AAF075F012E9A42AF9122FD122745D40
:102FD30028F582740839F583E022745F28F582743A
:102FE3000839123DEE740B22E8F0A3E91234CD1236
:102FF3000B64E922C082C08390033D741CF0A37468
:103003000EF090033F7416F0A3740EF09003437414
:1030130036F0A3740CF002338074F7120403EAFE53
:10302300EBFF900377E06408601BE0640460168E96
:10303300828F83E05403640170481230921238F592
:10304300E06406703D8E828F83A3A3E064FE700369
:10305300A3E0F4602D8E828F83A3A312343D9003EB
:1030630068E0687003A3E069700BEE2415F582EF46
:10307300125A746008120ECAE9F5088008120ED0BD
:1030830080F67508C2EEFAEFFB121536022532EE12
:1030930012309722240BF582EF3400F5832274F467
:1030A3001204038A088B098A828B83E0F8A3E0FA6F
:1030B300E82AFAE43400FB1215308A0A8B0BAE0AB5
:1030C300AF0BEE4F6060850882850983E0FC7D00CD
:1030D300790012149A8E828F83A3A31263B0120F06
:1030E3000C8E828F83A3A3A3A31233C38508828587
:1030F3000983E0F8EE28F8EF34001234458508829E
:10310300850983A3E0C0E0125241D0E0F0120F1E04
:10311300EE240E125244E9124A60E0C0E0EE24119C
:10312300125244D0E0F0EEFAEFFB024A6F74F6124B
:10313300040374EB120923EAFEEBFF1246836003D8
:103143000231D47A077B001215309003391233C34E
:1031530012468360788E828F83120AC290033A12DA
:1031630038F8120ACE126274C0E01231E0D0E0F0F7
:10317300EE2405FAEF3400FB8A088B098A82F58373
:10318300E0C0E01231DBD0E01231F0E0C0E01231F8
:10319300DBA3D0E012342F120AC28518828519836B
:1031A300120ACE88828983E0C0E07405120AE5D052
:1031B300E0F0850882850983E0C0E07404120AE523
:1031C300D0E0F07407120AE512331A8006791080F2
:1031D3000279017415022E501231E0A322900339B3
:1031E300E0FAA3E0F5838A82A3A3A3A322123805FE
:1031F30022C082C083124683600D900339124F862A
:10320300900339E4F0A3F0120E3A120FFC0233805C
:1032130074F012040374EB120923ECFEEDFF89082A
:103223007425120AE5780C120A887429120AE5E05B
:10323300F9742A120AE5E0FC742B120AE5E0FD7426
:103243000F697005740F6C6012900DFEE0640270DC
:103253000579C1023315E9C39C40F6900378780CD5
:10326300120AA6E50890037EF0E990037CF0ECA334
:10327300F0ED90037FF074FF6A700374FF6B701DB1
:10328300900E09E0F47003A3E0F470051214A68015
:103293000C900E09123398E8F0A3E98007900375A8
:1032A300EAF0A3EBF0EE4F6017EEFAEFFB1210BC5F
:1032B300E96401700BEEFCEFFD7A897B03121C3885
:1032C300900368E4F0A3F090036BF0A3F0900388FD
:1032D300F0900DFEE06402700890037C740FF0A37D
:1032E300F09003777405F014120AE5E4F090037884
:1032F300120AC2851882851983120ACE90037EE0D2
:10330300C0E07405120AE5D0E0F07407120AE51272
:10331300331A7415023DFCE41234CD121C6222C030
:1033230082C083900338E070031217B8120C068032
:103333004CC082C083900338E0900DB87004E4F071
:10334300802D7401F0900338E0F460237C41E0C3E6
:1033530094415002E0FCECF8E0C398F0EC75F0E81F
:10336300A4CCA8F075F003A428FD7A80123E527A0B
:10337300B87B0D7941121C508003120BB2D083D05D
:103383008202084112338B22122772A322E0F5082E
:10339300A3E0F50922123DF09003752274F712049D
:1033A30003EB90037FF0120E288005740D12088F33
:1033B3007F0102061D1233BEA3E02212342FA32283
:1033C300EAF0A3EBF02274F712040374F812092352
:1033D300EAFEEBFF7900900377E0640870448518F8
:1033E3008285198374FDF0A374FFF0120F06740233
:1033F300120AE51233C37405120AE5E41233BEE080
:10340300C0E07404120AE5D0E012342AC0E0740666
:10341300120AE5D0E0F07407120AE5E41234C91287
:103423000F4874080233B012342FE022F08E828FDB
:103433008322F085188285198322123DF022E0F859
:10344300A3E0F9EE123097E8F0A3E9F022C082C0BE
:103453008390034974C6F0A3740CF09003EF74A235
:10346300F0A3740FF090034D74FCF0A3740CF09070
:10347300034F74C6F0A3740CF09003517402F0A3CD
:10348300740DF002338074F412040374F9120923E7
:103493008A088B098C0A8D0B851882851983780815
:1034A300120AA67404120AE5E9F07405120AE5E4A7
:1034B300F07406120AE5E41234C9120BEE74070223
:1034C3004A6CE8F0A3E91234CD22123435AA82AB58
:1034D300832274F41204038A088B098A828B831271
:1034E30053B9EE4F70030235DE9003121246866025
:1034F300158A828B83A3A3E0F9EEFAEFFB90031303
:103503001238F8121DF98E828F83A3A3A3A3A3A35A
:10351300A3A3A3E0640270718E828F83A3A3A3A3EA
:10352300A3A3E0540270030235B0850882850983A2
:10353300A3A3E064E960768E828F83A3A3A3A3A3EE
:10354300A3A3A3A3A3E07014900E01E0048E828FC3
:1035530083A3A3A3A3A3A3A3A3A3A3F08E828F8375
:10356300A3A3A3A3A3A3A3A3A3A3E0141235E1746A
:1035730004F0900E02124E0CE8F0A3E9125ED88B11
:103583000BEA450B70031258AB8E828F83A3A3A360
:10359300A3A3A3A3A3A3E0640260128E828F83A3D9
:1035A300A3A3A3A3A3A3A3A3E06406702E8E828F79
:1035B30083A3A3A3A3A3A3E0A2E0501F850882854E
:1035C3000983A3A3E0F9EEFAEFFB121CDA8E828FD4
:1035D30083A3A3A3A3A3A3E054FEF0024A6F12386C
:1035E30005A3A3A32274EC12040374DD120923EAD6
:1035F300FEEBFF8C088D097437120AE5780C120A6A
:1036030088750A007405120AE5AC82AD83121D2E7B
:103613007412120AE5E070087415120AE5E06020DE
:103623007405120AE5E0A2E6501E8E828F83A3A3DF
:10363300A3A3A3A3A3A3A3124B09120F7EE96008BC
:103643007903121C200237EB7405120AE5E0540CCF
:1036530064047005750B018003750B00E0A2E5504F
:1036630019750A01E50BA2E040101263B7124B056E
:10367300121CE6E96004790480C87405120AE5E0C7
:10368300A2E650227406120AE5E05403701874058A
:10369300120AE5E0540C640C600CE0540C640860FE
:1036A3000575100180037510007405120AE5E054D6
:1036B30003F8740268700C1263B7124B05120AFE0A
:1036C3000237EB740168703AE510A2E05003123739
:1036D300F37405120AE5A882A9837403120AE5E8C4
:1036E300F0A3E9123DE48518828519831237FDE0C2
:1036F300C0E07402120AE5D0E01234C9121DCA02F6
:1037030037EBE860030237EB90035FE0640170106E
:103713008E828F83A3A3A3A3A3A3E07003023679AE
:103723007422120AE57402123DE4741A120AE512B5
:10373300344AE510A2E050087405120AE51237F383
:10374300E50BA2E0506AEE240FF582EF125A74C023
:10375300E07417120AE5D0E0F09003141246867065
:10376300030237EB120F0C8A128B13A812A91374DE
:103773001A120AE5E0687003A3E069706B780C1213
:103783000874780A120880780812087CA910740C4F
:10379300120AE5AC82AD837421120AE5AA82AB83D7
:1037A3009003141238F5121DF9740712088F80382C
:1037B300780C120874780A120880780812087C9032
:1037C30003751206ECEE2412F582EF12579E742352
:1037D300120AE5AC82AD83740E120AE5AA82AB83AA
:1037E300121CCE740912088F742312088F025EA371
:1037F3001263B7124F9412142222E8F0A3E912388D
:1038030005221258E1A3A3A32274F712040312168C
:103813009E0233B374F71204031216A40233B37473
:10382300F71204031216B00233B3C082C083121618
:10383300AA02338074F71204031216B60233B37468
:10384300F71204037409120AE5E0F5087808120870
:10385300801216C274010233B0C082C0831216CE26
:10386300023380C082C0831216D402338074F712ED
:1038730004031216DA0233B374F7120403EAFEEBFD
:10388300FF89087401650870147900120D3E9022B7
:1038930004E493FC7900EEFAEFFB120CB40233B3A9
:1038A30074F412040374F9120923E9FE8A088B09DC
:1038B3008C0A8D0B7413120AE5124B099005E7125B
:1038C30046866027EE851882851983F07401120AF3
:1038D300E57808120AA6EAF8EBF97405120AE5126C
:1038E30034C59005E71238F5121DF90234C0FB9078
:1038F300034BE0F8A3E0F583888222C082C08312E1
:10390300170A02338074F7120403900DBBE0F97EAB
:1039130000800B125A60540D64017001190E123BA2
:10392300025003E970ED0233B374F7120403900DF0
:10393300BCE0F97E00800B125A60548D64817001E3
:10394300190E123B025003E970ED0233B374F21205
:103953000403890BE975F006A4240CF508E5F012BD
:103963002E3F8A0CE508250CFAE5093400FB1215F5
:10397300308A0C8B0DAE0CAF0DEE4F6027AC08AD4B
:1039830009790012149A123092E50BF0EE2508F82B
:10399300EF3509F98E828F83A3A3A3A3A3A3A3A3C4
:1039A300A312344AEEFAEFFB0248FB74F612040347
:1039B300EAFEEBFF120C90900DBAE0F8E9C39840D1
:1039C30009900345124B09120C96EE2402F8EF12EC
:1039D3005109900347124FC3900347E004F0EEFAF6
:1039E300EFFB120C9C850882850983E00255B4C065
:1039F30082C0837900900345800109124B098A82B2
:103A03008B83E582458370F202338074F7120403DB
:103A1300EAFEEBFFEE4F6056900345124686604E7A
:103A2300888289837A007B00EE65827003EF658369
:103A3300600FAA82AB83123A74E5824583602F80BC
:103A4300E7900345123A80687002EF698E828F8394
:103A5300700812343D9003458003125EB512344A58
:103A6300EEFAEFFB121D9AEEFAEFFB121536023354
:103A7300B3123A7822123DF48882898322123DF0F0
:103A8300EE22C082C083900345800488828983121A
:103A93004686600B88828983124492EC4D70EC8ACF
:103AA300828B83E4F0A3F0E84960068882898380EF
:103AB300039003451233C302338074F71204039057
:103AC300034580048A828B83123AFD4B60257E0076
:103AD30080010E123B0250ECEE75F006A4FCADF033
:103AE300EA2CFCEB3DFDEC2410F582ED123B527009
:103AF300E180047A007B000233B3124F98EA22126A
:103B03003B5BEEC3982274F71204037D0080010D22
:103B1300123B57EDC3985034ED75F006A4FEA8F0A0
:103B2300E8FFEA2EFEEB3FFFEE2410F582EF123B97
:103B33005270DCED75F006A4FEE8FFEA2EFAEB3FC7
:103B4300FBEA2411F582EB125A744CF00233B312E0
:103B53005A806922123B5B221263C1EB3400F58366
:103B6300E0F82274F6120403120DB67A007B00808B
:103B730025EAF8EBF9E875F006A4F8ACF075F00661
:103B8300E9A42C124F6D126282A3E4125063F0A3D6
:103B93001262881263FF9021EE122ABE40D37A008C
:103BA3007B00801C8A088B09740378081209C512EC
:103BB3004A27A374FEF0A304124E4CA3E41263FF3E
:103BC3009021F8123C0540DC7A007B00801D8A08B6
:103BD3008B09740378081209C574FF1256E8740C34
:103BE300125F3A74FEF0A3041263FF9021FE123CAD
:103BF3000540DB902202E493900353F0123C0F0242
:103C03002E53E493F8C3EA98EB9400227CE87D03F7
:103C13007A107B009003C2E0F91215EA2274F012C5
:103C2300040374F51209238A088B09890A8C0BE9AA
:103C3300A2E050147508FC7509FFA2E15005D2E417
:103C4300023CE2D2E3023CE21248E77003A3E069DC
:103C530070057900023DAFAC0A7902AA08AB0912DC
:103C63000D92E960EDE50AF50C780C1208807902F3
:103C73007CFE7DFFAA08AB0912466212088FE96039
:103C830003023DADE50AC2E5F50A9003B5E07051C4
:103C9300E50AA2E6404B7403120AE5AC82AD83AA9F
:103CA30008AB09120B40E97032123F838A0C8B0D6B
:103CB300A80CA90DE8FEE9FFE8496025EE24020AF5
:103CC3000AEF1227B0601AEE2402FCEF3400FD74F1
:103CD30003120AE5AA82AB83121C38E50AD2E5F582
:103CE3000A900348E0F50C900368E0F50EA3E0F5B5
:103CF3000F780E12087C7D017C00900348E0F9AA3E
:103D03000EAB0F120D4A740212088FE9F8900348A4
:103D1300E004F0E86003023DADE50AA2E550047457
:103D23000E80027406C0E07401120AE5D0E012535B
:103D3300CA8A0E8B0FAE0EAF0FEE4F6069123DCDE8
:103D4300123DE4888289837401F07478550AA312C2
:103D530063C7E50C1263C7A3E508F0E509123DBC90
:103D6300E4F0E50AA2E5500F7403120AE5AC82AD54
:103D730083E82406123DB38E828F83A3A374FDF0E0
:103D8300A374FFF0E50B6015902205E493F8E50BAF
:103D9300C3985009EE2413125244E50BF0EEFAEFE8
:103DA300FB120BE280067910800279C7740B8049FD
:103DB300FAE93400FB121C382288828983A3A3A367
:103DC300A3123DC82212513CA322EE2417123099AC
:103DD3007401F0120F06EE241A123099EAF0A3EBE5
:103DE30022F01263BB3400123DEE22F583123DF440
:103DF30022E0F8A3E0F922740D12088F7F0802066F
:103E03001D74F61204037A007B101258B8600890F0
:103E130003D47401F08029900684E06401900DFFBF
:103E23007006E0FC79018004E0FC79037A007B00F2
:103E3300120CB49021EC123E467A007B10123E54D1
:103E4300022E53123E4A22E493FC740193FD227B1B
:103E5300009003C2E0F91215E42274EC1204038A01
:103E6300088B098C0C8D0D890E7414120AE5124807
:103E7300417416120AE5E0F510A3E0F511120F7E66
:103E8300E960077AFF7BFF023F80900DFEE064024A
:103E93006003023F737900AA08AB09120D98A90EBB
:103EA300120D8C8A128B13AE12AF13EE4F700302F6
:103EB3003F5B8E828F83A3A3A3A3A3E064018E82BF
:103EC3008F83A3A37069124B098E828F83A3A3A34D
:103ED300A3A3A3E054186043902203E4938E828F3C
:103EE30083A3A3A3A3F0EA650C7003EB650D601431
:103EF300EA650A7003EB650B600AEA65107003EB71
:103F03006511701F781012087CAC0AAD0BAA0CABBC
:103F13000D12107A740212088F80089003671258EA
:103F2300A2A3F074FE6A700374FF6B601D804EA33E
:103F3300A3A3E0640360298E828F83A3A3A3A3A317
:103F4300E0640470057AFE023E888E828F83A3A309
:103F5300A3A3A3E0640270089003B4E064027010AA
:103F6300123F838B0BEA450B6006AA08AB09800D51
:103F7300AA08AB099003491238F5121DF9025EA392
:103F830090037512466812103E2274F7120403EA76
:103F9300FEEBFF120B94E9700AEEFAEFFB120BA093
:103FA300E96006EEFAEFFB80047AFE7BFF0233B38F
:103FB30074F01204038A0A8B0B8C0E8D0F8909751A
:103FC3000800120F7EE97900600302412AAA0AABB6
:103FD3000B120D98A909120D8C8A0C8B0DAE0CAF28
:103FE3000DEE4F60198E828F83A3A3A3A3A3E06476
:103FF3000270559003B4E064027003024128AA0AD8
:10400300AB0B90034F1238F5121DF9120BA68A0C55
:104013008B0DA80CA90DE8497003024128888289F9
:1040230083A3A3A3A3A3E0A2E04003024128750C4A
:1040330001A2E150687901AC0AAD0BAA0EAB0F12D5
:104043000CE4E970640241288E828F83A3A3A3A3A7
:10405300A3E064037005750C0280528E828F83A3E4
:10406300A3A3A3A3E0640160030241289003751294
:1040730044928E828F8312447E8A0C8B0DA80CA9E6
:104083000DE84960D19021FCE493FA88828983E0AA
:10409300C39A50C2A3E0600302412880B988828991
:1040A30083A3A3A3A3A3D2E1F0EE4F603A8E828F42
:1040B30083A3A3A3A3A3A3E05418602B7508018EC5
:1040C300828F83A3A31206EC750CFE750DFF780C8B
:1040D30012087C7900AC0AAD0BAA0EAB0F120DAA25
:1040E300740412088F803E900368E0650E7004A389
:1040F300E0650F7014902204E493FCA909AA0AABAB
:104103000B120CB4750801801CA90CAC0AAD0BAAE8
:104113000EAB0F120CE4E9700C750801A909AA0A89
:10412300AB0B120D3EA908023DFF74EA120403749F
:10413300F01209238A0C8B0D8C088D097426120A40
:10414300E5E0F514A3E0F5157512069003F51246A4
:10415300866023900375124492AA08AB0912106873
:104163008A108B11EA4511600D8A828B83A3E0705C
:10417300057900024466E50C241DF50EE50D3400B7
:10418300F50F850E82124672F51388828983A3A3E5
:10419300A3E0FA88828983A3A3A3A3E0F9EA240016
:1041A300FEE439FFAA08AB09120D44850E82850F80
:1041B300831244B0E029F50BE50AA2E5500375121A
:1041C3000E7487550A70177418550A6418600FE542
:1041D3000C2417F582E50D125A74651260077901F4
:1041E300121C20808C530A78C3EE94F8EF94FF508E
:1041F3001D7900EEFAEFFB12447060128882898306
:10420300A3A3A3A3A3A3E0541860030241747808F3
:1042130012087C7D001244A312088FE9F874036826
:104223007003024174E860030242DF7418550A7098
:1042330003024394E50AD2E0F50AA2E45004D2E172
:10424300F50AA90A124B02124470605388828983CB
:10425300A3A3A3A3A3A3E05418604488828983A3E0
:10426300A3A3A3A3E064017036E510451160309069
:1042730003751244928882898312447E8A0E8B0FBF
:10428300A80EA90FE849601788828983A3E0600F0D
:10429300851082851183A31255BF5003024174E533
:1042A3000AF50E780E12088012449612088FE970F0
:1042B3002B7C007D0085148285158374FFF0A3F0A9
:1042C300850C82850D83A3A3A3A3A3A3A3A3E0606B
:1042D30003124487A90B124B021216C88514828558
:1042E3001583E0F47003A3E0F460399003B4E06451
:1042F300027003024174124832E0FAA3E01238F16B
:10430300121DF9EA65087003EB6509600302417445
:10431300EEFAEF1238F1121DF9851482851583EA3E
:10432300F0A3EBF0780812087C7D011244A3120875
:104333008FA90AEEFAEFFB120D988A088B09A808D9
:10434300A909900368E0687003A3E069600302446D
:1043530057EEFAEFFB120BA68A088B09A808A909E6
:10436300E849606E88828983A3A3A3A3E064016004
:104373000D88828983A3A3A3A3E0640270548518E4
:1043830082851983AC82AD83EEFAEFFB120B40807A
:1043930055900361E0600FE50AF50E780E12088070
:1043A30012449612088FE50AF50E780E12088079EA
:1043B300027CFE7DFFEEFAEFFB12466212088FE9E4
:1043C30060030242DF85148285158374FFF0A30224
:1043D3004326120F06EAFCEBFD851882851983AA92
:1043E30082AB83121C38850C82850D83A3A3A3A300
:1043F300A3A3A3A3E06401700F1244877408120AF5
:10440300E5AA82AB83121C3812463C12524B44304D
:10441300F50878081208807401120AE58582088578
:104423008309780812087C740B120AE585820885D3
:104433008309780812087CE513F5087808120880C8
:104443007900EEFCEFFD124B02120CDE740612082B
:104453008F02417412463C1252471244B0E50BF0EE
:10446300120F1E741012088F7F0E02061D120D8C80
:104473008A0E8B0FA80EA90FE84922A3A3124F9807
:1044830012106822E50C2415F582E50D12309C12FA
:104493004E26227901AC08AD09124F8D12466222D5
:1044A300AC0BA913124F8D120D4A740222125253F0
:1044B300A3A3A3A32274F012040374F01209238AA2
:1044C3000C8B0DECFAEDFB750F089003F512468685
:1044D30060141255B88A828B83E58245836007A3F3
:1044E300E0700302463712463C3400124672F50B65
:1044F30088828983124645E0FBEC2400FEE43BFFFF
:1045030088828983A3A3124645A3A3E0FBECF508A5
:10451300E43BF50988828983A3A3A3A3A3A3A3E010
:10452300F50EE50AA2E45003750F10A2E5500674D8
:1045330008250FF50F748F550A700FE50C2417F536
:1045430082E50D125A74650F60087901121C20026E
:104553004637530A707800E50AA2E4502212463C1B
:10456300125A742408FCA3E03400FD7408120AE50F
:10457300AA82AB83121C387808E50AC2E4F50AE57F
:104583000AA2E5502812463C125A7428F8A3E034D4
:1045930000F9E82408FCE93400FD851882851983B5
:1045A300AA82AB83121C38E50AC2E5F50AAC0EA950
:1045B3000BEEFAEFFB120D50E9F874036860759087
:1045C3000368E06E7003A3E06F605EE87054E50A71
:1045D300F50F780F12088012465312088FE97054B2
:1045E300780A1208807401120AE585820C85830D0E
:1045F300780C12087C740B120AE585820C85830DF6
:10460300780C12087CE50BF50A780A120880A90ECB
:10461300AC08AD09EEFAEFFB120CDE740612088F3C
:104623008012740468700D80B7780A1208801246ED
:104633005312088F7410023DFCE50C241DF582E52E
:104643000D22A3A3A3E0FC88828983A3A3A3A322AF
:10465300790112483912309C1246681246622212BE
:104663000D08740122E0FCA3E0FDAA08AB0922F5C2
:1046730083123A78A3E0F50A88828983A3A3E02210
:10468300900339124FF42274E812040374F51209EB
:1046930023EAFEEBFF8C088D0989147423120AE5C3
:1046A300E0F50F7424120AE5E0F512A3E0F51374A4
:1046B30026120AE5E0F516A3E0F5177428120AE5B9
:1046C300E0F50EA90F120D568A108B117401120A10
:1046D300E57408F0E50EA2E450037410F0E50EA2B1
:1046E300E55004E02408F0851882851983AA82AB7B
:1046F30083120F668A0C8B0DEA450D70030248196D
:10470300EA2417F582EB12482B120F06E50C241A44
:10471300F582E50D1252471233C37403120AE5AC56
:1047230082AD83AA10AB11120B40E9601D1248231E
:104733007403120AE5A882A983E50C2418F582E51F
:104743000D125247E8F0A3E98024E50EA2E4501FBE
:10475300E5106E7003E5116F7015124823E50C2404
:1047630018F582E50D125247E512F0A3E513F01296
:104773004832124841850A82F5837402F0A3E50E9C
:10478300124849E50FF0EE850A82850B83A3A3A3A4
:10479300F0EF850A82850B83A3A3A3A3124849A341
:1047A300A3A3E508F0E509850A82850B83A3A3A3E8
:1047B300A3A3A3F0AA10AB11120D44E92514850A93
:1047C30082850B83A3A3A3A3A3A3A3F0750800E58A
:1047D3000EA2E45011AC12AD13E50A2408FAE50B5E
:1047E300123DB5750808E50EA2E55014AC16AD17D9
:1047F300E50A2508F8E50B3400F9E82408123DB36F
:10480300850C82850D83A3A3E510F0A3E511F0AA1F
:104813000CAB0D120BE2740B12088F7F1002061DF6
:10482300E50C2416F582E50D12309C7401F022127A
:10483300483912309C22E50C1263C2E50D22E0F5E3
:104843000AA3E0F50B22F0850A82850B83A3A3223A
:1048530074F21204038A088B09ECFEEDFF890A79CE
:10486300001248E77003A3E069700479018073754F
:104873000B01900368E065087004A3E06509601FFD
:10488300750B00780B120880A90AEEFCEFFDAA084D
:10489300AB09120FBA740112088FE9F50B80417945
:1048A30000EEFAEFFB120D8CEA4B602B8A828B83AE
:1048B300A3A3A3A3A3A3E05418601C7508FE750962
:1048C300FF780812087C8A828B83A3A31206EC125A
:1048D30061D712088F80097901EEFAEFFB120C669B
:1048E300A90B8014120D988A0C8B0DA80CA90D909E
:1048F3000368E0682212088F7F0602061D74F41213
:10490300040375084775090B7A10125EDF8B0BEAF7
:10491300450B7003123C0F900353E014F0700C909E
:104923002202E493900353F0120DA47E007F0080D3
:104933006C850882850983A3A3A3A3E06059F4606F
:1049430056E5082404F582E50912589C7049850848
:1049530082850983A3A3A3A3A3E064037019790247
:10496300850882850983124492850882850983A379
:10497300A3124B09120CE4850882850983A3A3A320
:10498300A3A3E06401601085088285098374FEF0A7
:10499300A304124A59E4F0122FB5122E379021F0D6
:1049A30012603B408C7E007F008039120EAC8E0873
:1049B3008F09740378081209C574BF2508FC740CA9
:1049C3003509FD7AF07B0C120E9AEA4B70DD8E08E6
:1049D3008F09740378081209C5124A27126282E408
:1049E300F0122FB59021F8E493F8C3EE98EF9400FA
:1049F300501B8E088F09740378081209C5124A2FB9
:104A0300E82407F582E912589C70D680A17E007FC6
:104A130000800A124A3A600214F0122FB51260386D
:104A230040F18048124A2F888289832274BF250867
:104A3300F8740C3509F922EEF8EFF9E875F006A4DD
:104A4300F8AAF075F006E9A42AF9745F28F58274D0
:104A53000C39F583E022124A60A3A3A322F0850850
:104A630082850983A3A322740D12088F7F04020693
:104A73001D74F712040374E1120923ECFEEDFF75B4
:104A83000800EE4F60728A828B83E0241C1258CD9B
:104A930012468660638A828B83124B09851882854E
:104AA3001983AC82AD83EA241BF582EB12579EEA8D
:104AB300241CF582EB124B05120EEE740B120AE561
:104AC300124B0D7003A3E069702E7402120AE5E025
:104AD30064017024741D120AE51238F5E064017054
:104AE30017741D120AE51238F7A3A3E0F88E828F1C
:104AF30083E0687003750801A908741F0233B012BC
:104B030048393400F583124F982212276EE0682249
:104B130074F4120403E97024790090034D1238F5FC
:104B2300121DF98A0A8B0BAE0AAF0B74FE6E70036B
:104B330074FF6F701A9021FFE4936013790190035F
:104B43004D1238F5121DF98A0A8B0BAE0AAF0B1200
:104B53000F2A02312974F612040374F31209231283
:104B630014A68A088B09AE08AF09900368E06E703B
:104B730003A3E06F60E9120F12EA6E7002EB6F603D
:104B8300DEEEFAEFFB120F7EE970D4EE4F60D085B4
:104B93001882851983E4F004120AE5EEF0A3EF12FC
:104BA3004BBBE970BA74FE6E700374FF6F60B0EEB6
:104BB300FAEFFB740D022E501234CD120B5822C0A3
:104BC30082C083120F2A0233807F0A02061D74F209
:104BD300120403EAFEEBFF8C0A8D0B8908740E1294
:104BE3000AE5E0F50974FC6E700374FF6F700579D4
:104BF300000248FB7900120D988A0C8B0DAE0CAFA6
:104C03000D900368E06E7003A3E06F7006E509A2E0
:104C1300E650DCA9091260C5706179007AFE7BFF5A
:104C23001260C57056741855097003024D08780058
:104C3300790080031229689021F012295F40030252
:104C43004D08E8FAE9FBEA75F007A4FAACF075F051
:104C530007EBA42CFB744D2AF582740B3BF583E020
:104C6300541870D0E875F007A4F8AAF075F007E9B6
:104C7300A42AF9744728F8740B39F988828983A325
:104C8300A3A3A3A3A3E054186009741855097003E0
:104C9300024BF288828983EEF0A3EFF074FE650A7B
:104CA300700474FF650B6003124E2C88828983A302
:104CB300A3A3A3A3A3E509F0A2E0500D88828983EF
:104CC300A3A3A3A3A3A3D2E2F074016508888289F6
:104CD30083A3A3A3A3A370387401124E4CE054180A
:104CE3006028902203E49388828983A3A3A3A31259
:104CF3004E1A1210688B0DEA450D6003024BF278D1
:104D030000790080397902024BF4900367E080D781
:104D1300E064017003024BF288828983A3A3A3A3F7
:104D2300A3A3E054186007902203E4938004900344
:104D330066E0123DBCE508F0024BF21229689021AF
:104D4300F9E493FAC3E89AE994004003024BF27A38
:104D5300007B00804BEAFCEBFDEC75F007A4FCAE96
:104D6300F075F007EDA42EFD74492CF582740B3D0C
:104D7300F5831253B9E8FCE9FDEC75F017A4FC8543
:104D8300F00975F017EDA42509FD74D72CF582748D
:104D9300093DF583E06E7003A3E06F609E122E8AD7
:104DA3009021F0122E4740AD123E46EC6A7002EDA0
:104DB3006B7088E875F017A4F8AAF075F017E9A4EA
:104DC3002AF974D728FE740939FF7C177D0079000E
:104DD300EEFAEFFB12149A8E828F83124E329003F7
:104DE30075124E0CA3A3A3A3A3A3E8F0A3E9124E49
:104DF300127401F0EE240E1252447401124E3A1250
:104E030002B2125241E8024D3A12338BA3A322F0AD
:104E1300EE240F12309922F0124E23AA0AAB0B2272
:104E2300900375E0FCA3E0FD2288828983A3A3E5B8
:104E33000AF0A3E50BF022F09021FCE4932401F89F
:104E4300E43400F97A027B0022123DC8A32274EDF8
:104E53001204038A088B09890E124F7640057905DF
:104E6300024F4B121710AA08AB091250489021EEBB
:104E7300124F4E650A7003E9650B70077AFE7BFFDC
:104E83001250489021EE125A53E50B994003024FFA
:104E930049124F536012E50A75F006A4F875F0063F
:104EA300E50B124F9E121536E50E6018E50A75F0F4
:104EB30006A4F8AAF075F006E50B124FCA701A792A
:104EC30001024F4BE50A75F006A4F8AAF075F00647
:104ED300E50B124FABE4F0A3F0E50A75F006A4F876
:104EE300AAF075F006E50B124F6BA312526188828C
:104EF3008983A3AA82AB83124FB98A828B83E06032
:104F030041124F53603C8E108F11751200781012AE
:104F13000878E50EC333FCE433FDE50A75F006A417
:104F2300F50AA8F075F006E50BA428F50B746325C4
:104F33000AF582740C350B124B0712148E7403128C
:104F4300088F7900800279070260DB122ADFE822EA
:104F5300E50A75F006A4F8AAF075F006E50B124F02
:104F6300A6F8A3E0F9E84922A42A1250FF8882890F
:104F730083A322ECFEEDFF9021FAE493F8E9C398B2
:104F830022F583124F9812153622E50C1263C2E5FF
:104F93000D3400F583E0FAA3E0FB22124FA6FAA337
:104FA300E0FB22124FABE022A42AF9746328F582B6
:104FB300740C39F58322E50EF0900E00124FC322D4
:104FC300E088828983F022125123F50CE93400F53D
:104FD3000DE50EC333FAE433FB121530850C8285DD
:104FE3000D83EAF0A3EBF0850C82850D83124FF459
:104FF30022123DF4E8492274F4120403ECFEEDFF9F
:10500300740C120AE512343D88088909125048AC21
:105013000AAD0BECF8EDF99021EE1250505021E857
:1050230075F006A4F8AAF075F006E9124F6BE08E4E
:10503300828F8312506312505912344A79008002CE
:105043007904024A6F120D1A8A0A8B0B22122E5808
:10505300C3EC9AED9B22123DF085088285098322D9
:105063001251382274F61204037E007F008028EE6A
:10507300F8EFF9E875F006A4F8ACF075F006E9A4CA
:105083002CF9746128F582740C125CE66A7003A330
:10509300E06B6057122FB512603840D31260337043
:1050A30002E96F704674FE6A700374FF6B703C7E96
:1050B300007F008003122FB5126038502E124A3A37
:1050C30070F3EEF8EFF9E875F006A4F81250F51254
:1050D300512A6017125111F8E91251098882124FAF
:1050E30084850882850983E4F0A3F0EEFAEFFB02DE
:1050F3002E5375F006E91250FD22A42AF9745F2895
:10510300F8740C39F9223400F98808890922EEF879
:10511300EFF9E875F006A4F875F006E912512322B9
:105123001250FDE8240422A3A374FE125135124F3A
:10513300F422F0A30412513C22F088828983A3A3B2
:10514300A3A32274F6120403EA241DF582EB125280
:105153004BF9604BEA241DF582EB125A742402FCCE
:10516300A3E03400FD124F7A4003025234780080EA
:10517300298C828D83E0F508A3E0FFE5082400E491
:105183003FF509E833FEE433FF74A72EF582740C70
:105193003FF58312526112523708E8C39940D28A0D
:1051A300828B83A3A3A3A3A3A3A3A3A31244929039
:1051B3000368E06C7003A3E06D700F7CA77D0C1295
:1051C30026D7124B05120D0E8067EA2411F582EBE8
:1051D300125A74605CFC74FF2CF075080178081295
:1051E30008807508A775090C780812087CE9F5088A
:1051F3007808120880EA2412F582EB125A74F50833
:105203007808120880EA2415F582EB125247120639
:10521300ECECF91226D712448F8A828B83A3A3A3C3
:10522300A3A3A3A3A3A3124B09120D267407120869
:105233008F022E53EC24020C0CED3400FD22EE24DD
:105243000DF582EF12309C2212309C125253E02251
:10525300E0F8A3E0F5838882A32288828983E508A6
:10526300F0A3E509F02274EA12040374FD12092382
:105273008A148B158C0E8D0F890D7419120AE51281
:1052830053B9741B120AE5E0F511741C120AE5E028
:10529300F50C741D120AE5124841741F120AE5E069
:1052A300F5106008E50CC333240480027402C0E0E7
:1052B3007401120AE5D0E01253CA8A088B09EA4541
:1052C3000970030253AA8A828B83A3A3E514F0A374
:1052D300E515125ECEE50EF0A3E50FF0EA2413F513
:1052E30082EB125247E50DF0EA2414F582EB1252D9
:1052F30047E511F0EA2417F582EB125A7464017042
:1053030040120F0C8A0E8B0FA80EA90F85088285F9
:105313000983A3A3A3A3E0687003A3E0696022EE5B
:105323004F6011E508241AF582E509125247EEF0A1
:10533300A3EF800CE5082417F582E509125247E430
:10534300F01253AF1253B98E828F837405F0A3E525
:10535300107004E50C80487401250C1253C37A00C5
:105363008028850A82850B83E01253BF850A8285D4
:105373000B83A3E08E828F83F0E50A2402F50AE50E
:105383000B3400F50BA30EAF830AEAC3950C40D28E
:10539300120F0CEA1253BF120F0CEB8E828F83F0A5
:1053A300AA08AB09120BE274030244681226E8123E
:1053B300309C22900334E0FEA3E0FF228E828F8391
:1053C300F0A3AE82AF83221234CD120F6622C082C5
:1053D300C083E9C333FCE433FDEA2CFAEB3DFBEA7B
:1053E30024FEF582EB34FF124B0702338074F21272
:1053F300040389098A0A124F7640047900804075B4
:10540300080080020508E508C39509502AE508C38A
:1054130033F8E433F9EE28F582EF39F583C082C01F
:1054230083120F0C8A0C8B0DD083D082E0650C7035
:1054330004A3E0650D70CDE50A650870BE7901022D
:1054430048FB74F012040374F31209238A088B09CE
:105453008C0A8D0B890C750D00120F7EE9790060A3
:1054630003025547AA08AB09120D98A90C120D8C1B
:105473008A0E8B0FAE0EAF0FEE4F70030255458EA3
:10548300828F83A3A3A3A3A3A3E0A2E240030255B5
:1054930045120F0CEA650A7003EB650B7011780D6A
:1054A300120880E4F50EF50F780E12087C8044AAEA
:1054B3000AAB0B120B9AE96401706885188285198F
:1054C300837404F07401120AE5124E328518828542
:1054D3001983AA82AB83120B58E964017045750DD9
:1054E30001780D120880E4F50EF50F780E12087C92
:1054F300750D00780D120880780D1208807408125B
:105503000AE585820E85830F780E12087C902205AA
:10551300E493F9AC0AAD0BAA08AB09120D26740784
:1055230012088F8E828F83A3A3A3A3A3A3E0A2E178
:10553300400D8E828F83A3A3A3A3A3A3C2E2F0751E
:105543000D01A90D023DFA74F6120403E9FE790078
:10555300120D98EEF9120D8C8A088B09A808A90977
:10556300E8496006126409F980027904022E537433
:10557300F61204037E0790035CE070341255B88A78
:10558300088B09A808A909E8496025900361E0642C
:105593000188828983A3A3700B1255BF88828983F4
:1055A3005001A3A3E0F9121086E9FEEE70027E0714
:1055B300EEF9022E53124E2312106822E0FA88826B
:1055C3008983A3E0C39A2274EE120403EAFEEBFF7D
:1055D300890A8C0C8D0B7412120AE5123390125641
:1055E30094124F7D5051890E750F007403780E127B
:1055F30009C574C5250EF582740C350FF583E0F8E3
:10560300E50CC398502DE50B6024751100740378E5
:10561300101209C574BF2510F8740C3511F988826E
:105623008983A3A3A3A3A3A3E50C12569EF0790039
:10563300024BCC790380F979007AFE7BFF125694F2
:10564300E49365107004790280E6E50B60E0890E4F
:10565300750F007403780E1209C574BF250EF87414
:105663000C350FF988828983A3EEF0A3EF12569EBF
:10567300124E4CE50C123DC474FF126288E50AF029
:10568300900366E088828983A3A3A3A3A3A3A38033
:105693009C120D86E9F5109021F8221263CBA3E545
:1056A30008F0A3E5092274F6120403ECFF120D8639
:1056B3009021F8124F7D50278908750900740378EB
:1056C300081209C574C41256E8740C125F3AE0F864
:1056D300EFC3985006EFF0790080067903800279D2
:1056E30004022E53EA2508F5822274F4120403EA15
:1056F300FEEBFF120D86E9F50A9021F8124F7D505B
:1057030019750B007403780A1209C574C2250AF5CA
:1057130082740C350B124B07801890034B1246868C
:10572300600CEEFAEFFB1238F8121DF980047AFED2
:105733007BFF024A6F74F61204038A828B83A3A34E
:10574300A3A3A3E4F0F88001089021FEE493F9E811
:10575300C399501E88081257968C828D83A3A3A3E6
:10576300A3A3A3A3A3E06970DFECFAEDFB120EB2CF
:10577300801EE4936870198C828D83A3A3A3A3A3D3
:10578300A3A3A3A37406F07A008C828D831258C15D
:10579300022E5374472508F582740D125A80F9229C
:1057A30074F4120403EAFEEBFF8E828F83A3A3E05B
:1057B300141258D8A3E0F9120E8E8A088B09EA4511
:1057C3000970030258998E828F83A3A3E070358AF0
:1057D300828B83A3A3A3A3A3A3A3A3A3E064028AAB
:1057E300828B83A3A3A3A3A3A3A3A3A36010740681
:1057F300F07AF08508828B831258C1025899740697
:10580300F00258998E828F83A3A3A3A3A3A3E0607E
:10581300738E828F83A3A3A3A3E0607AEE2403F5A0
:1058230082EF12589C706F9003551258A21258D8E9
:10583300E014125EC5E06403705C8E828F83A3A3C1
:10584300A3A3E0700DAC08AD09EEFAEFFB120D5CFB
:1058530080448A828B83A3A3A3A3A3A3A3A3A37438
:1058630004F01214A6EA540F04850882850983A361
:10587300A3A3A3F0A3E4F07A20FB1258B870171285
:1058830058AB80128A828B83A3A3A3A3A3A3A3A34E
:10589300A3E0640360AF024A6F125A8014F022E05F
:1058A3008E828F83A3A3A3227A207B009003C2E07E
:1058B300F91214E822125EE18B09EA450922E02479
:1058C3000C1258CDE0F9120DD422F8A3E03400F9FC
:1058D30088828983221258DDA3221258E1221234CE
:1058E3002FA3A3A32274F612040379007E0080255C
:1058F3008E08750900740378081209C574FF25081A
:10590300FA740C3509FB8A828B83A3A3E06005122A
:105913000D6279010E9021FEE493F8EEC39840D016
:10592300E9A2E07A407B009003C2E0F9501512151A
:10593300F68B09EA4509700E7C647D007A40123CBF
:105943001580031215F0022E5374F4120403ECFEB7
:10595300EDFF7508FF75090C7C008045850882857D
:105963000983A3A3A3A3A3A3A3E0F8EA2412F582C4
:10597300EB125A7468701F85088285098312343DBF
:10598300125A78687003A3E069700B850882850951
:1059930083A3A3E070200CE5082408F8E50912515D
:1059A300099021FEE493F8ECC39840B0E4936C7043
:1059B300057900024A6F850882850983A3A3A3A3FF
:1059C300A3A3E07004790180EA1260D312103E8B26
:1059D3000BEA450B600F850882850983A3A3A3A364
:1059E300A3A3E014F07C0080010C8C0A9021E61242
:1059F3005A53E4995020EC125A8660ED122FCD6E63
:105A03007003A3E06F70E2850882850983A3A3A3D3
:105A1300A3A3A3E014F09021F9E493F89021E6E422
:105A23009328F8A3E4933400F9850882850983A3B6
:105A3300A3A3A3A3A3E0FAC3E89AE994005086853D
:105A43000882850983A3A3A3A3A3A3E4F00259C8EF
:105A5300125A5AE50A9822E4122AE0C322EE75F09C
:105A630006A4FCADF0EA2CFCEB3DFDEC2411F58221
:105A7300ED125A80221263C1EB125A80223400F5D0
:105A830083E02275F012A4F8A9F0746128F58274FA
:105A93000839F583E0F42274EA120403EAFEEBFF0B
:105AA3008C148D1589127CFF7D0C75080175090016
:105AB300750A00750B009021F9E49378081207FD2D
:105AC300908043780C120A887A0080128C828D832E
:105AD300A3A3E0601E0AEC2408FCED3400FD902132
:105AE300FEE493F8EAC39840E3E4936A700579000F
:105AF300025CDC8C828D83A3A3A3A3A3A3E4F0FAAB
:105B0300802E64016005E06403701D8E828F83A381
:105B1300A3A3A3A3A3A3A3A3E0F47003A3E0F4703C
:105B230007780C7908120A110A740178081207FD24
:105B33008A10125CDFE51098E499504DEA75F01273
