:020000040000FA
:06000000020A150201AD29
:030013000201D017
:03002B0002087652
:03003B0002022599
:030053000200DECA
:100083000201420101FF050301DB0FDB0FDB0FDB85
:100093000F970E910EDB0F421B00000000A41B0004
:1000A3000000000C0000000C0001FFFF0101010033
:1000B3006705000000B805E80364006400B80102A6
:1000C3000200002000050207051E02051E0A03B8F0
:1000D3000B02010215000202020612C0E074F212C2
:1000E300046DA2AFE433FED2AFE5A7FFE5A1F508A7
:1000F3005F5410600612164775A1EFE5085F5408B8
:10010300600812164D75A1F7802BEFA2E0C0D0E571
:1001130008A2E092F0120962158182F050179061F3
:1001230098E0F8900787E0C398A2D265D0335002D5
:10013300E8F075A1FEEEA2E092AF7F01020524C0B4
:10014300E074F212046DA2AFE433FED2AF9061A467
:10015300E0F8759B00E59158540860087591F71213
:10016300168F802AE59158541060087591EF121686
:1001730095801BE8A2E0C0D0E591A2E092F01209BD
:1001830062158182F05007E0C2E0F01217D390614C
:10019300A3E0F8E5E9585404600E1217A975E9FBCA
:1001A300906193E0A2E640F2808BC0E074F2120407
:1001B3006DA2AFE433FED2AF9061A5E0F8E5BF587E
:1001C3005404600675BFFB1217EB020138C0E0C090
:1001D300D0E8C0E0E9C0E0C082C083E5C1C0E090E0
:1001E30006F3E0F8747228F58274063400F583D0C0
:1001F300E0F09006F2E0F8A3E0687006E59590065B
:10020300F5F09006F3E004F0C394804002E4F0A319
:1002130074C6F0D083D082D0E0F9D0E0F8D0D0D04B
:10022300E032C0E0C0D0E8C0E0C008C009C082C06E
:1002330083900776E0F8A3E0687008539AFBA374F1
:10024300018026C2E9900776E0F50874012508F0DD
:1002530074F62508F58274063400F583E0F5C19041
:100263000776E0C394804002E4F0D083D082D009C3
:10027300D00880A6C3E498F8E499F91202B880265E
:10028300C3E49AFAE49BFBE920E7E91202B8E49895
:10029300F8E499F922C3E498F8E499F91202B8E46E
:1002A30098F8E499F9C3E49AFAE49BFB22EB20E77C
:1002B300CFE920E7E0B90010BB0008E88AF084F832
:1002C300AAF022E4FBC8FA22EB70227B10C833C8E1
:1002D300C933C9335007C39AC3DBF280069A50016E
:1002E3002ADBEAC833F4C8C933F4C9FA2275F00823
:1002F300E4C833C8C933C933C99AC99B5004C92A4E
:10030300C93BD5F0ECFBC833F4C8E4C9FA220808AA
:1003130008EAC0E0EBC0E086F0E7A4FA180986F02B
:10032300E7A42AFA180986F0E7A42AFA180986F03E
:10033300E7A42AFA1986F0E7A4FBE5F02AFA1908DC
:1003430086F0E7A42BFBE5F03AFA190886F0E7A458
:100353002BFBE5F03AFA18180986F0E7A4C5F02B51
:10036300FBE43AFA1908E7C5F0C6A426F6E5F03B24
:10037300FBE43AFA1886F0E7A4F6E5F00826F6E47B
:100383003B08F6E43A08F6D0E0FBD0E0FA22E4CFEB
:10039300C0E0E4CEC0E0E4CDC0E0E4CCC0E075F062
:1003A30020C3E633F608E633F608E633F608E63309
:1003B300F6181818EC33FCED33FDEE33FEEF33FF84
:1003C300C3EC9709ED9709EE9709EF9719191940AF
:1003D3000FFFEC97FC09ED97FD09EE97FE1919063F
:1003E300D5F0BEECF709EDF709EEF709EFF71919A8
:1003F30019D0E0FCD0E0FDD0E0FED0E0FF222518CC
:10040300C582C0E0E51934FFC583C0E0E518C39594
:100413008224F810AF0885831985821880088583A4
:1004230019858218D2AFCEF0A3E520F0A37808E6B1
:1004330008F0A3DEFAEFF0A3E58124FAF8E608F06A
:10044300A3E608F0A3E608F0A30808E608F0A3E68D
:1004530008F0A315811581D0E0FED0E0F8158115D1
:10046300811581E8C0E0EEC0E022C0D02518C58226
:10047300C0E0E51934FFC583C0E0E518C3958224C5
:10048300F310AF0885831985821880088583198541
:100493008218D2AFC8F0A3E9F0A3EAF0A3EBF0A36C
:1004A3007908E709F0A3D8FAECF0A3EDF0A3EEF096
:1004B300A3EFF0A3D0E0F0A3D0E0F0A3D0E0F0A34B
:1004C300E520F0A3E5F0F0A322120A77B9000302B6
:1004D300050EE490030178D579098002F0A3D8FCD6
:1004E300D9FA900BD5AA82AB83900086785979010B
:1004F3008015E493A3AC82AD838A828B83F0A3AA95
:1005030082AB838C828D83D8E9D9E77582AB7583FF
:100513007D74001207EE75824975831A7400120701
:10052300EE851983851882E0C0E0A3E0F9A3E0FA21
:10053300A3E0FBA37808E0F608A3DFFAE0FCA3E05E
:10054300FDA3E0FEA3E0FFA3E0C0E0A3E0C0E0A3BF
:10055300E0F5D0A3E0F520A3E0A3F5F010AF088504
:1005630083198582188008858319858218D2AFD0B4
:1005730082D083D0E0F8D0E03275F0108E1A8F1B52
:1005830085821F85831E851882851983E0CEA3E0AB
:10059300CF851F82851E83EBC9EAC8EDCBECCAC3A6
:1005A300E833C8E933C9EA33CAEB33CBC3EA9EF570
:1005B3001DEB9FF51CB35004AB1CAA1DEC33CCED13
:1005C30033CDD5F0DAAE1AAF1B22D083D082ECC084
:1005D300E0EDC0E0E493A3FCE493A3FDED4C600DD8
:1005E3001206A5EC24FFFCED34FFFD80EFE493A39A
:1005F300FCE493A3FDED4C600D120742EC24FFFCD9
:10060300ED34FFFD80EFD0E0FDD0E0FCE493A3C028
:10061300E0E493C0E022D083D082E9C0E0E493A376
:10062300C386F0C5F095F0F908E493A386F0C5F00E
:1006330095F0700BE493A3C3994005E9048002A3EA
:10064300E475F002A42582F582E5F03583F583D0C5
:10065300E0F9E493A3C0E0E493C0E0228519838525
:100663001882E0A3FEE0A3F5207808E0A3F608DFF4
:10067300FAE0A3FFE0A3C0E0E0A3C0E0E0A3C0E092
:10068300E0A3C0E0E0A3C0E010AF08858218858333
:10069300198008858218858319D2AFD083D082024E
:1006A30007F4C0E0C3E49396087401939618400FCF
:1006B300E49366700808740193661870007019A3B8
:1006C300A3C3E49396087401939618A3A3400DD093
:1006D300E0D0E0D0E0020609A3A3A3A3A3A3D0E044
:1006E300227404800474028000CCC0E0EDC0E0E515
:1006F30018C39CCCAD1950011D10AF068C188D1971
:1007030080068C188D19D2AF12078FD0E0FDD0E090
:10071300FC2274028000CCC0E0EDC0E0E518C39C6D
:10072300CCAD1950011D10AF068C188D1980068CA5
:10073300188D19D2AF12076DD0E0FDD0E0FC22C0B6
:10074300E0C0F088F0E493667008087401936618BB
:100753007000A8F0A3A3700BD0F0D0E0D0E0D0E0FD
:10076300020609A3A3D0F0D0E022CAC0E0E493A319
:10077300C582CCC582C583CDC583F0A3C582CCC554
:1007830082C583CDC583DAE5D0E0CA22CAC0E0E0E2
:10079300A3C582CCC582C583CDC583F0A3C582CC56
:1007A300C582C583CDC583DAE6D0E0CA22700908C5
:1007B3000808226016181818C6C333C608C633C6FD
:1007C30008C633C608C633C6D5E0EA22C008C3E06C
:1007D30096F50808A3E096420808A3E096420808A5
:1007E300A3E09645087001D3D00822C09FF59FE48B
:1007F30073D09F22D083D082C09FE493C0E0740162
:1008030093C0E0740293F59F227404800A740380FA
:1008130006740280027401C0E0F404120827D0E0D9
:10082300120A52222518F58210AF08F51840021556
:10083300198008F51840021519D2AF85198322BB18
:100843000102E722C082C08389828A83BB0003E05E
:100853008002E493D083D08222C0D0251810AF0841
:10086300F518500205198008F51850020519D2AF82
:10087300D0D022C0E0C0D0E8C0E0E5A8D2AFC2C764
:10088300A2E792AFD0E0F8D0D0D0E03260160808EB
:1008930008C6C313C618C613C618C613C618C6138C
:1008A300C6D5E0EA22C3E0C696F608A3E0C696F6EC
:1008B30008A3E0C696F608A3E0C696F6222518100C
:1008C300AF08F518400215198008F51840021519EC
:1008D300D2AF22E066701008A3E066700A08A3E0B6
:1008E30066700408A3E06622C3E09608A3E09608B6
:1008F300A3E09608A3E096A2D265D03322E7667000
:10090300100809E766700A0809E76670040809E732
:100913006622C3E096F008A3E096F008A3E096F001
:1009230008A3E096F022E026F008A3E036F008A33F
:10093300E036F008A3E036F022E627F60809E637AA
:10094300F60809E637F60809E637F622700422604E
:100953000D18C6C333C608C633C6D5E0F41822C083
:10096300E0E8C0E0E58124FCF8E6A2E7D0E0F8D0B7
:10097300E022E657F60809E657F60809E657F608AF
:1009830009E657F622E056F608A3E056F608A3E078
:1009930056F608A3E056F622E056F008A3E056F018
:1009A30008A3E056F008A3E056F022E647F608094C
:1009B300E647F60809E647F60809E647F622E02681
:1009C300F608A3E036F608A3E036F608A3E036F609
:1009D30022E4C396F608E496F608E496F608E4964D
:1009E300F622C6F4C608C6F4C608C6F4C608C6F49A
:1009F300C622C3E7960809E7960809E7960809E7B8
:100A03009622C3E09608A3E09608A3E09608A3E025
:100A1300962275D00075814075180175190300027F
:100A230004CCE0F608A3E0F608A3E0F608A3E0F69A
:100A330022600C08C6C313C618C613C6D5E0F42239
:100A4300E6F008A3E6F008A3E6F008A3E6F022CA5E
:100A5300C0E0E6F0A308DAFAD0E0FA22E0FAA3E075
:100A6300FBA3E0FCA3E0FD22EAF0A3EBF0A3ECF090
:100A7300A3EDF022E5C754F84401F5C77901222517
:100A830018F582E43519F58322C2AF75D69F0200AB
:100A930000221207F74BA9011207F7D8A901120781
:100AA300F720AA011207F785AA011207F7D4AC01B0
:100AB3001207F727AE011207F7CAAE011207F702B2
:100AC300B0011207F720B0011207F751B001120766
:100AD300F763B0011207F7B5B0011207F716B101BA
:100AE3001207F7A0B1011207F744B2011207F798F2
:100AF300B2011207F7B1B2011207F7D7B201120719
:100B0300F712B3011207F75BB3011207F7ACB30196
:100B13001207F75CB4011207F714B5011207F7DCEB
:100B2300B5011207F7B9B6011207F73FB70112076C
:100B3300F74EB7011207F759B7011207F76AB80161
:100B43001207F77BB8011207F700B9011207F78FF5
:100B5300B9011207F7E7B9011207F7B1BA01120792
:100B6300F7E2BA011207F71FBB011207F72CBB010B
:100B73001207F7BBBC011207F71EBE011207F731BC
:100B8300BF011207F778C1011207F783C1011207EA
:100B9300F78DC1011207F798C1011207F7A2C1012E
:100BA3001207F7ACC1011207F7B7C1011207F7C269
:100BB300C1011207F7F3C1011207F717C2011207A8
:100BC300F73BC2011207F7A0C2011207F7E4C20103
:100BD3001207F700C3011207F777C3011207F7AF34
:100BE300C3011207F7FBC3011207F758C401120729
:100BF300F73AC6011207F7C0C6011207F79BC701F0
:100C03001207F79CCA011207F7F1CA011207F71D71
:100C1300CB011207F769CC011207F7B9CC01120710
:100C2300F70ECD011207F70FCE011207F7A7CE017A
:100C33001207F729CF011207F7C9CF011207F7C52A
:100C43001D001207F7FE1D001207F7D81F00120739
:100C5300F71720001207F76120001207F70621009B
:100C63001207F76521001207F79921001207F7060B
:100C730022001207F72323001207F72B2400120781
:100C8300F7E624001207F72828001207F7D12800F7
:100C93001207F7C529001207F7262A001207F743A0
:100CA3002B001207F7502D001207F7072E0012072B
:100CB300F7112E001207F7442E001207F70B2F002F
:100CC3001207F7A62F001207F70B30001207F734AD
:100CD30030001207F75630001207F785320012076B
:100CE300F75C33001207F7A033001207F70D340047
:100CF3001207F7C834001207F7FA34001207F73E59
:100D030035001207F77135001207F7C635001207D1
:100D1300F71B36001207F7AF36001207F71137003B
:100D23001207F77937001207F72239001207F70A7B
:100D33003A001207F74C3B001207F77A3D001207FF
:100D4300F73A3E001207F76940001207F70C41001B
:100D53001207F74A41001207F7F642001207F70A93
:100D630043001207F71443001207F73E430012072C
:100D7300F74A43001207F76943001207F7204400BC
:100D83001207F75F44001207F76944001207F71DC3
:100D930045001207F71C46001207F7154700120714
:100DA300F7B247001207F75448001207F76B4800E1
:100DB3001207F7A248001207F7C048001207F7040A
:100DC30049001207F72949001207F70F4A001207D3
:100DD300F77B4A001207F7F54A001207F7044C00A5
:100DE3001207F7434D001207F7A54D001207F75FEF
:100DF3004E001207F7824E001207F7564F001207F4
:100E0300F7A14F001207F7E34F001207F74D500009
:100E13001207F77B50001207F7B450001207F7D9F7
:100E230050001207F76151001207F78453001207AD
:100E3300F7E353001207F77754001207F7E3540060
:100E43001207F73755001207F7F4EC021207F733CE
:100E5300ED021207F78556001207F7DF5600120757
:100E6300F73B57001207F78757001207F7A25700FF
:100E73001207F7D357001207F7F057001207F7FCD2
:100E830057001207F77059001207F7895900120724
:100E9300F7F059001207F7035A001207F7115A0027
:100EA3001207F7C55A001207F7A95B001207F7AF3D
:100EB3005C001207F7355D001207F73F5D0012076C
:100EC300F7AC5D001207F7C35D001207F7F55D008D
:100ED3001207F72E5E001207F7585E001207F7B9E4
:100EE3005E001207F7D95E001207F7F75E001207DC
:100EF300F73D5F001207F76360001207F7B0600069
:100F03001207F7DF60001207F75561001207F77D3C
:100F130061001207F7B661001207F7C461001207F8
:100F2300F71C62001207F76B62001207F7AA620050
:100F33001207F7DA62001207F70663001207F711C8
:100F430063001207F72F63001207F7F1630012071C
:100F5300F7FB63001207F73664001207F74C6400CF
:100F63001207F75564001207F7AA64001207F7BEC9
:100F730064001207F7BB65001207F7CE650012077E
:100F8300F7E365001207F78566001207F7086700A5
:100F93001207F7C667001207F7D167001207F7F7C2
:100FA30068001207F71369001207F7656900120753
:100FB300F7A469001207F7B969001207F7FB690084
:100FC3001207F7486C001207F7C66C001207F739CF
:100FD3006D001207F75B6F001207F7736F001207BC
:100FE300F7766F001207F7826F001207F7966F000C
:100FF3001207F79E6F001207F7D16F001207F781F0
:1010030070001207F7F770001207F76A71001207F2
:10101300F71E72001207F7D372001207F7F272007D
:101023001207F79273001207F79E73001207F7C9AE
:1010330073001207F7CC73001207F7367400120718
:10104300F75E75001207F73676001207F7C17600D0
:101053001207F7DA77001207F79778001207F7D02D
:1010630078001207F70179001207F7A17900120738
:10107300F7D179001207F7AC7A001207F7457B0026
:101083001207F7D07B001207F7817C001207F703E2
:101093007D001207F7357D001207F7767D001207F2
:1010A300F7D999021207F73E9A021207F7769A02C6
:1010B3001207F7C59A021207F7E79C021207F7CA4D
:1010C3009E021207F728A2021207F75DA202120777
:1010D300F77FA2021207F7E4A2021207F71AA3028C
:1010E3001207F73DA3021207F76AA3021207F7C616
:1010F300A3021207F7AAF3011207F72BF401120751
:10110300F761F4011207F7C8F4011207F73BF60180
:101113001207F757F6011207F79CF6011207F72A91
:10112300F7011207F783F7011207F7B7F801120760
:10113300F785F9011207F7FDF9011207F779FA01AB
:101143001207F7BBFA011207F7FCFA011207F7308F
:10115300FC011207F72EFD011207F759FD011207D3
:10116300F7A4FD011207F7EBFD011207F77DFE015E
:101173001207F736FF011207F753AD021207F79F65
:10118300AD021207F70DAE021207F72EAE021207D9
:10119300F7DEAE021207F7E7AE021207F73AAF0225
:1011A3001207F763AF021207F7CAAF021207F75B22
:1011B300B0021207F79DB0021207F7E7B002120759
:1011C300F746B1021207F7D7B1021207F7749C0171
:1011D3001207F755B2021207F78AB2021207F79CF9
:1011E300B2021207F7AEB2021207F7CDB20212072C
:1011F300F7D6B2021207F79EB3021207F79BE90272
:101203001207F70FDB021207F745DB021207F78E0F
:10121300DB021207F7DEDC021207F77CD0011207AC
:10122300F7BBD1011207F73EA9011207F7B6D301A5
:101233001207F7DFD3011207F772D6011207F7B6C9
:10124300D6011207F73FD8011207F7D7D8011207C3
:10125300F73FD9011207F7E0D9011207F722DA01A4
:101263001207F762DA011207F7EDDB011207F75DE8
:10127300DD011207F782DF011207F7B0DF01120762
:10128300F7D7DF011207F7E0DF011207F767E00185
:101293001207F785E3011207F717EE021207F73D6E
:1012A300ED021207F788C4021207F79BC402120764
:1012B300F738C5021207F773C5021207F78EC50286
:1012C3001207F7B3C5021207F7F8C5021207F72989
:1012D300C6021207F75AC6021207F7E0C70212073F
:1012E300F70EEB021207F74BEB021207F78DEB0237
:1012F3001207F79DEB021207F746DD021207F752BA
:10130300DD021207F767DD021207F790DD0212070D
:10131300F7A1DD021207F7B1DD021207F7EBDD02D9
:101323001207F740DE021207F7B3DE021207F7BE19
:10133300DE021207F7E5DE021207F730CE021207CC
:10134300F7B1CE021207F76BCF021207F7E6CF020F
:101353001207F768D0021207F7D8D0021207F70076
:1013630080021207F74580021207F7EF8002120787
:10137300F79781021207F7F481021207F74D8202F1
:101383001207F71784021207F79484021207F7BEB5
:1013930084021207F77B86021207F796860212076A
:1013A300F7E586021207F7FB86021207F7088702A2
:1013B3001207F73887021207F75387021207F7ADB0
:1013C30087021207F7FF87021207F709890212073C
:1013D300F7808B021207F71A8C021207F7658C024B
:1013E3001207F7C98C021207F7E68C021207F7E916
:1013F3008C021207F7EC8C021207F75F8D021207BB
:10140300F77A8D021207F7A68D021207F7E18D0214
:101413001207F7E48D021207F7A7EB021207F7B3DF
:10142300EB021207F7EDEB021207F706E4011207CE
:10143300F731E4011207F7F3E4011207F778E50146
:101443001207F7E1E5011207F72DE6011207F7ACE2
:10145300E6011207F73EE7011207F7CAE701120791
:10146300F70CE8011207F755EC011207F7D5ED0168
:101473001207F714EE011207F7DDEE011207F791D9
:10148300EF011207F741F1011207F7CDF10112073E
:10149300F71D8E021207F7D78E021207F7498F0244
:1014A3001207F7E58F021207F75590021207F78923
:1014B30091021207F76592021207F7D692021207FA
:1014C300F75394021207F71595021207F7B0950226
:1014D3001207F70B96021207F72897021207F7C7AE
:1014E30097021207F78498021207F73BEE021207DE
:1014F300F73DEE021207F738DF021207F769DF0242
:101503001207F723E0021207F789E0021207F72A0E
:101513007E001207F7ECED021207F7FDED0212074A
:10152300F712E1021207F720E1021207F742EE0277
:101533001207F72AEC021207F73AEC021207F752E6
:10154300EC021207F79AEC021207F799E802120766
:10155300F71EE9021207F782E9021207F7F87F0084
:101563001207F750E5021207F765E5021207F7D9EC
:10157300E5021207F7F3E5021207F706E602120780
:10158300F714E6021207F72EE6021207F74EE602F9
:101593001207F7EDC7021207F7FBC7021207F77529
:1015A300C8021207F74DC9021207F7D8CA02120779
:1015B300F719D1021207F767D1021207F704D20213
:1015C3001207F7AFD2021207F7C7D2021207F74387
:1015D300D3021207F759D3021207F76CD30212078B
:1015E300F77AD3021207F7C7B3021207F71CB40244
:1015F3001207F718B6021207F74AB6021207F76C7A
:10160300B6021207F785B6021207F79EB602120753
:10161300F7A8B7021207F743B8021207F7CAE202A4
:101623001207F7EFE2021207F7FFE2021207F7329F
:10163300E3021207F763E3021207F798E3021207C4
:10164300F7FAE3021207F709E4021207F713E402B9
:101653001207F7BED3021207F7E4D3021207F721EA
:10166300D4021207F730D4021207F74FD40212073D
:10167300F7B7D4021207F7C0D4021207F71FD50237
:101683001207F743D5021207F702D6021207F70F24
:10169300D6021207F720D6021207F783ED021207CC
:1016A300F7A0ED021207F757BD021207F7B5BE0206
:1016B3001207F7C2BE021207F7D5BE021207F7F4EC
:1016C300BE021207F70ABF021207F71EBF02120774
:1016D300F7A1BF021207F704C0021207F78BC0027B
:1016E3001207F7E9C0021207F7F9C0021207F775EC
:1016F300EA021207F799EA021207F7C1EA02120790
:10170300F7E9EA021207F74ED6021207F775D60277
:101713001207F796D6021207F7FBD6021207F7B4A1
:10172300D8021207F7CDD8021207F7D9D802120749
:10173300F7EDD8021207F70BD9021207F715D902F2
:101743001207F71FD9021207F732D9021207F783DC
:10175300D9021207F7BCD9021207F7EBD902120715
:10176300F739DA021207F788DA021207F7A3DA0267
:101773001207F7ADDA021207F7BEDA021207F7040F
:10178300DB021207F7A3EC021207F712A4021207F7
:10179300F73EA4021207F75AA4021207F76DA40238
:1017A3001207F783A4021207F7EFA4021207F72226
:1017B300A5021207F751A9021207F777AA02120727
:1017C300F7AAAA021207F7F6AA021207F72FAC022A
:1017D3001207F757AC021207F76CAC021207F77C3B
:1017E300AC021207F7C0AC021207F715AD021207DD
:1017F300F725AD021207F71DE4021207F738E402DA
:101803001207F761E4021207F77BE4021207F7A05D
:10181300E4021207F7BFE4021207F7D7E402120744
:10182300F705E5021207F71FE5021207F7BCFF01F0
:101833001207F708C1021207F70FC1021207F71BBD
:10184300C2021207F74BC2021207F771C202120754
:10185300F794C2021207F7B6C2021207F7F0C202E8
:101863001207F756C3021207F78FC3021207F7DBFB
:10187300C3021207F708C4021207F728C4021207AB
:10188300F796E7021207F7A8E7021207F793E802B1
:101893001207F796E8021207F783E6021207F7F535
:1018A300E6021207F733E7021207F774E70212079B
:1018B300F71DCB021207F739CB021207F788CB02C9
:1018C3001207F7A4CB021207F7D5CB021207F7E5ED
:1018D300CB021207F7D1CC021207F7DBCC021207B7
:1018E300F7E8CC021207F7F8CD021207F70CCE0285
:1018F3001207F715CE021207F782B8021207F7A2F2
:10190300BC021207F7A7BC021207F7BFED021207CA
:10191300F74B9C011207F73E9A011207F70A9A0147
:101923001207F7D799011207F7BB99011207F7D7E7
:1019330098011207F78F98011207F7C4960112074F
:10194300F74496011207F74196011207F75B9501D9
:101953001207F72995011207F76694011207F79109
:1019630092011207F74792011207F7199201120722
:10197300F71692011207F70392011207F79B9101E1
:101983001207F78A91011207F76F90011207F70503
:1019930090011207F73CA6011207F78EA301120765
:1019A300F762A2011207F7B6A1011207F707A00118
:1019B3001207F7C88F011207F7698F011207F7386B
:1019C3008F011207F7C29D011207F7F38B0112076C
:1019D300F7E48A011207F7738A011207F7388A01BD
:1019E3001207F7399D011207F7F7D1011207F70321
:1019F3008A011207F7F789011207F75789011207BE
:101A0300F79E88011207F77186011207F7FD83011C
:101A13001207F7BB83011207F78682011207F73B10
:101A230082011207F76D81011207F7C480011207C3
:101A3300F79A80011207F7E09C011207F760800113
:101A43001207F716B20200000080FBE473000136B0
:101A53003601010001020100010301000104010636
:101A63000605020000070100340801000F09040104
:101A7300010D0100FF0E080000170200001901000C
:101A8300FF1A0100011B0100FE1C0100081D0200DA
:101A9300001F0100012001000121020000230100B9
:101AA3000F2402000026010001270100082802007C
:101AB300FF2A0100072B0102402C0100002D010029
:101AC300012E0100012F0100FF30010B1C31080022
:101AD300003A0100083B01000F2F010000010171D2
:101AE3000101010101110101013101010101018024
:101AF30001100161013B0014006301730172016273
:101B03000143010001130106013D013500040112E7
:101B1300010001000100010001040104013301334C
:101B2300013C01440132013600000100016501005E
:101B330001350081010001050182018301000103D8
:101B43000071003001600011007000310220035069
:101B53000480001000610000001400630073007231
:101B630000620043000000130006000000000004B0
:101B73000012000000000000000000040004003711
:101B83000037003C02440000000000000000006534
:101B93000000003500810000000500000083000004
:101BA3000001037103010301030103010301032284
:101BB30003020301031003000300030003000300F7
:101BC300030003000342030003240306030003008E
:101BD300030403120325032303250323030403043C
:101BE3000300030003000344030003000323030073
:101BF300036503210035038103000305030003008C
:101C0300030003030271023001600211027002013A
:101C130002020202028002100261023A00410063E2
:101C230002730272026202430200021302380000CE
:101C33000200020402120200020002000200020477
:101C4300020402370037003C02440200023900005C
:101C530002000265020002350281020002050282CF
:101C6300028302000236000100060000000F00009C
:101C7300000000000000000000000003FFFF000060
:101C83000403FFFF0000FFFF0FF4010005C404037A
:101C930020000100000B0000000000000000030111
:101CA3000F0100A914020043140300491404004F58
:101CB3001405005514060061141100791414007FF3
:101CC3001415007314FFFF0000F10E210FF70EFD32
:101CD3000E1B0F0F0F090F270F2D0F330F3F0F038E
:101CE3000FEB0EE50E03EAF5E5D5D5C5B5A595953C
:101CF3008585757565655555454535352525151511
:101D0300050AC30C028D0C059F0C07930C0C6F0C7A
:101D13000D810CFF000000160F00000B150B0200D5
:101D230002220F32000006DB0FED0FF30FBB0EF99B
:101D33000FB50EC10E3B1059105F1041104D1047E7
:101D4300100C0E020B040B0A0708000F00383C3E70
:101D5300363B3B352B432C00011916181616152359
:101D6300030000034948424D181725050230301778
:101D7300181921301B1D1F30303016181920231A53
:101D83001C1E302F10FF0F051011100B10150F39EB
:101D93000F5310450F4B0F02040201010101090209
:101DA30000000000000000BE040AE8030400150060
:101DB3000E00280008040C0A030908FF1E1E0F0466
:101DC3000C0574F7120401E99003B0F0900365E485
:101DD300F01218819003B5E4F0A3F09003B1F0A3DF
:101DE300F0120DFB121887900334E4F0A3F0901D5A
:101DF300C193FA79021218E7024A7674F2120401C7
:101E0300EAFEEBFF548060699003B0E0F91211A978
:101E13008A088B09EA4509604F7C0080010CEC7548
:101E2300F003A4F8A9F0740428F582741D39F5832E
:101E3300E493F4602CE493F88508828B83E0687064
:101E4300DCAA08EC75F003A4F8740528F582741D68
:101E530039F583E493C0E0740193F583D082121AB9
:101E63004EAA08AB0912119DEEFAEF6480FB021F24
:101E7300CBEF5420601D120D1D8A088B09EA45091A
:101E8300600A120C81AA08AB0912119DEEFAEF64E5
:101E93002080DAEEA2E0501A90036AE0640F700B20
:101EA3007900120C4BE96003121FCEEE6401FAEFC6
:101EB30080BB54207003021F99750C001234BB8B36
:101EC30009EA450970107C027D007A207B009003AB
:101ED300B0E0F91212C37C0079047A007B00120C83
:101EE300F98A088B098018850882850983A3A3A32F
:101EF300A3A3A3A3A3A37401F0850A08850B09E593
:101F0300084509606D7C007904AA08AB09120CF935
:101F13008A0A8B0B750C01E5082404F8E5091232D3
:101F23005F24FFF0A3E034FF12552E70CC850882A6
:101F3300850983A3A3A3A3A3A3A3A3A3A3E06401EA
:101F430070A5850882850983A3A3A3A3A3A3E05453
:101F5300047094850882850983A3A3A3A3A3A3A3E1
:101F6300A3A37406F07AB78508828509831220FA41
:101F73008087120CC97C0079017A007B00120CF96E
:101F83008B09EA45097009E50C70057A201244159E
:101F9300EE6420021EB1EF5402600B120DF5EEFA4F
:101FA300EF6402021E70EF540460191245AC124430
:101FB300CC7901900363124830120B91EEFAEF646F
:101FC30004021E707A007B00022201900C09122881
:101FD300B8120C6322C082C08374EA1208C0851849
:101FE30082851983AA82AB83794B1218BD740812B8
:101FF3000A827402F07409120A82AA82AB837950AE
:102003001218BD7413120A82E41249FF1218DB740A
:10201300160239D974F712040174E11208C0EAFEFA
:10202300EBFFEE4F6033851882851983AC82AD8355
:10203300120D417406120A82E0601E7417120A829E
:10204300E0FD7401120A82E0FCEEFAEFFB79001264
:102053000ABFE9600479A480027900024A7174F628
:10206300120401EAFEEBFF8E828F83A3A3A3A3A333
:10207300A3E05440601B124EEE1221C860067AFFA3
:102083007BFF801A8E828F83123665FAA3E0FB8072
:1020930003120D6574FE6A700374FF6B6041124E88
:1020A300EE124459120DB9E98E828F836006122015
:1020B300F3E480051220F37401F07C517D0C8E82D1
:1020C3008F831248301218E1E9F5087015EE4F605E
:1020D300097901EEFAEFFB120CD5A90802448A75BF
:1020E30008CDAA088E828F831220FAE960DF80EA86
:1020F300E0240D123B3422E0240C123B34E0F912AD
:102103000C5D2274F6120401E9FEEAFF7A0F7B00EC
:10211300121197EA4B60198A828B83740CF0EEA339
:10212300A3F0EF8A828B83A3F01244B57900802F4A
:10213300EEF9120CFF8A088B09A808A909E849607F
:102143001C88828983A3A3A3A3A3A3A3A3A3740625
:10215300125155E0F9120C15EEF9120CDB7910024D
:10216300448AC082C08390036AE0640F7014EA4B10
:102173006010900365E064086005E0640470031276
:102183002188023A03EAFCEBFD7A017B009003B05D
:10219300E0F91212BD22C082C0837900EA241DF542
:1021A30082EB12366224FD600B14600824FD600488
:1021B30024FD700109023A038E828F83A3A3A3A394
:1021C300A3A3A3A3A31221CC221236AAFB120DB9F7
:1021D300E9228E828F83A3A3A3A3A3A3A3A3A31202
:1021E30021CC6402228E828F83A3A3A3A3A3A3A3E0
:1021F300A3A31239FA900356E0682212085C7F0603
:1022030002065F74F412040174FD1208C08A088B7D
:10221300098A828B83A3A3E0F9120CFF8A0A8B0B32
:10222300AE0AAF0BEE4F700302230D8508828509BA
:1022330083A3E064F16030850882850983A3E064A9
:10224300CD6024850882850983A3E0641A6018851C
:102253000882850983A3E064E9600C850882850907
:1022630083A3E064E170087900120CD5E9706C85F2
:102273000882850983A3E0C0E07402120A82D0E0D9
:102283001239DEEEF0A3EF122D268518828519830D
:10229300AA82AB837005120B798003120DA174021D
:1022A300120A82E064E970338E828F8312231975D8
:1022B3000A01780A120818750AE9780A120818E55B
:1022C30008240CF582E509122808122D03FCA3E06B
:1022D300FD8A828B83122D1D12085C8E828F83A34D
:1022E300A3A3A3A3A3A3A3A3E0640270108E828F6E
:1022F30083A3A3A3A3A3A3A3A3A37406F085088224
:10230300850983A3A3E0F9120CDB120CC9900C0D11
:10231300121FD10228BDE0F8A3E0F9E8FAE9FB2295
:1023230074F4120401EAFEEBFF7508008E828F83BA
:10233300A3A3A3A3A3E060427508088E828F83A39F
:10234300A3A3A3A3A3A3A312390D8B0BEA450B608D
:102353001075082C8E828F83A3A3A3A3A3E0D2E0DE
:10236300F08E828F83A3A3A3A3A3E054036401602D
:102373000302240C43081102240CEE24181228CA69
:102383006033EE241A1228CA700F1221E87003A3D7
:10239300E06970757508228070EE241BF582EF12D8
:1023A3002411241AF582EF122D2EEE2419124F2236
:1023B300120C0380541221D570037508011221E811
:1023C3007003A3E0697006E508D2E1F508E508604B
:1023D300158E828F83A3A3E07006E508D2E58004FF
:1023E300E508D2E6F5081221BB64017006E508D2C0
:1023F300E0F5088E828F83A3A3E0600D12241F648F
:10240300016006E508C2E0F508A9080228C21236F1
:102413005012241822E0FCA3E0FDEE2212364A12E9
:102423003682F9120DA7E922C082C08379018A821C
:102433008B83A3A3E0C394024001198A828B83A3F5
:10244300A3A3A3E0C39402400279008A828B83A3EF
:10245300A3A3A3A3A3A3A3A3E064F87003A3E0F43B
:1024630060458A828B83A3A3A3A3A3A3A3A3A3E00F
:1024730064F97003A3E0F4602E8A828B83A3A3A381
:10248300A3A3A3A3A3A3E064FA7003A3E0F46017D8
:102493008A828B83A3A3A3A3A3A3A3A3A3E064FB25
:1024A3007003A3E0F4700279008A828B83A3A3A351
:1024B300E0F8900353E06860027900901DC0E49354
:1024C300C394805013EA24111224DE901DC0E493B8
:1024D300C333C39850027900023A03F582EB1244E6
:1024E300E5F82274F012040174DE1208C0EAFEEB70
:1024F300FF8E828F83A3A3A3A3E0600E900C0B1225
:1025030044816006900C0B121FD17403120A82AC33
:1025130082AD838E828F83A3A3A3124503124D3C06
:10252300E9600F7403120A82AA82AB83120C7BE95F
:10253300700879011218930227FDEE241B123655F9
:102543007410120A821244CC7409120A82E06021C8
:10255300741A120A82E0FD7404120A82E0FC8E826D
:102563008F8312482E7901120ABFE9600479028031
:10257300C37403120A82AA82AB83120C75E9F50AAB
:102583007409120A82E0702A90034DE060247422D9
:10259300550A6422601C7442550A644270CF742049
:1025A300120A82122813600A7420120A8212280C5B
:1025B30070BBE9A2E650417403120A82AA82AB837C
:1025C300120C69E970030225357420120A8212364F
:1025D300656403700F7420120A82A3124473A3E08C
:1025E300640D60147403120A82AA82AB83120DCBAA
:1025F300E9640170030227FDEE242C122805122B37
:10260300397003A3E069701C750800780812081874
:102613007808120818EE242E124F22122819122DB0
:102623001D12085C7409120A82E070030226DA1292
:102633002819124830120E198A088B09EA450970C5
:10264300030227777404120A82E0F88E828F83A331
:10265300A3E028F8A3E03400F9E8240DF582E91299
:1026630024E18A828B83A3A3A3E068601CE88A82A7
:102673008B83A3A3A3F090803D120A5F8508828514
:102683000983A3A3A3A3120A6B7904E9120A821292
:102693004D192AF8A3E034008882F583A3AA82ABFC
:1026A3008312118B8A0C8B0D8C0E8D0F85088285FE
:1026B3000983A3A3A3A3780C1207CF40030227FD2A
:1026C300908045780C1209C1850882850983A3A3EC
:1026D300A3A3780C120A43900365E064046008E046
:1026E300640960030227FDE50AA2E540030227B55A
:1026F300EE242E1228CA851882851983F0EE242F22
:102703001228CAC0E07401120A82D0E0F0EE24302D
:102713001228CAC0E07402120A82D0E0F0741412C4
:102723000A82E064017027740E120A8212365BEE8D
:1027330024121228CA687003A3E0697011740C1282
:102743000A821221E270077414120A82E4F0EE2462
:10275300241228051206E47404120A82AC82AD83A3
:102763007407120A82AA82AB83120B7F74041208C5
:102773005C0227FD9003AAE0640160030226DA7479
:1027830020120A821228137009E50AA2E6500302F6
:1027930026DA7410120A82E0F47003A3E0F4605A9C
:1027A300EEFCEFFD7403120A82AA82AB83120C873C
:1027B3008048A2E650447420120A8212483F701ADD
:1027C300741A120A82E0640270307403120A82AA35
:1027D30082AB837900120D9580207420120A821235
:1027E300280C7016741A120A82E06404700C7403C5
:1027F300120A82AA82AB83120D8F7422024BEBEE74
:10280300240BF582EF12365022124F00E0640722A8
:10281300123682640622EE242A12364D122418241C
:102823001212364D2274F4120401EAFEEBFF8C08F7
:102833008D09900613E0600F1221E87003A3E0698D
:102843007005120BF1804F7900124823120C218A74
:10285300828B83E58245836035A3A3A3A3A3A3E06F
:102863005418602AE508241BF582E509122808128A
:1028730006E8122EF91228081206E8EE2418124F61
:102883002212289B120C33740412085C800879000E
:1028930012289B120BF780278E828F83A3A3A3A3F7
:1028A300A3A3A3A3A3122418240BF582EF1228B425
:1028B300223400F5831236AAFB22740312085C7FCC
:1028C3000402065FEE2417F582EF1244E52274F743
:1028D30012040174F71208C0EAFEEBFF900365E0EF
:1028E3006403600DE064016008E064096003022989
:1028F300B38E828F83A3E060030229927C007D0064
:102903007A027B0012188DEE2402FAEF123266125D
:10291300365B9003561244CC79531218C3790012D4
:1029230029B8E064096009900363124830120E135A
:1029330085188285198374011244A2900365740477
:10294300F07401120A82AA82AB83794A1218BD7409
:1029530001120A82AC82AD837A5B7B031218AB90BF
:102963000356124D327A037B0012188D90035912CD
:102973004D327A047B0012188D900350E0A2E3508D
:1029830004D2F08002C2F012448F121FCE801E8E3A
:10299300828F83A3AE82AF83FC7D007A037B101208
:1029A300188D8E828F83E0F91229B8E4F0120CB1EE
:1029B3007409024A739003631228B8120B919003AF
:1029C3006522C082C083900334124481701F900338
:1029D30065E014600924FC600A14600C800F900306
:1029E3003C8032900338802D90033A8028E8496078
:1029F30008900335122CFD700C8A828B83A3E0F9B7
:102A0300120B85801B900335122F957005120DE96B
:102A1300800E9003D21244816006124473121A4E40
:102A2300023A0374F412040174FB1208C08A088B7F
:102A3300097A0F7B001211978A0A8B0BAE0AAF0B30
:102A4300EE4F7003022B2D8E828F831249FD795036
:102A53001218BD850882850983A3E06003022B1544
:102A6300900363E0F47003A3E0F46034900363E045
:102A730064FE7003A3E0F46027851882851983122E
:102A83002B397003A3E0696017850882850983A346
:102A930074EA122D337A637B0379501218C3807260
:102AA300851882851983124EE11244CC7A567B0332
:102AB30079531218BD9003561244FD1244CC7A592F
:102AC3007B03794B1218BD7A587B0379E11218BD49
:102AD30090036AE0C3940F5021900358E0C0E07460
:102AE30002120A82D0E0F07404120A827401F00424
:102AF300120A82AA82AB831218D5750A00780A12C9
:102B03000818780A120818900C2BE0F9122D1412E9
:102B1300085C850882850983122B32A3F090036534
:102B23007403F0EEFAEFFB1244B574050228BFA359
:102B3300E08E828F8322124EE5E06822123B3B2215
:102B430074F512040174D81208C08A088B098A82AA
:102B53008B83A3A3A31236877415120A82AC82ADAA
:102B6300838A828B83A3A3A3A3A3A3A3A3122D036B
:102B7300FAA3E0FB120CB77415120A82E0706B859E
:102B83000882850983A3A3A3A3A3A3A3A3E0C39458
:102B93000B40578E828F83A3A3A3A3A3A3A3A3E076
:102BA30064027046EE240B1228CAF4703D9003654C
:102BB300E06402603AE064066035900334124481B5
:102BC3006005122CFD604F900365E064086005E02A
:102BD300640470167417120A82E0F9741C120A82D4
:102BE300AC82AD83124823120CBD74280253DB90D0
:102BF3000334124481701F7508007808120818788E
:102C030008120818EE2410122805124F3A12334EF8
:102C1300122D1D12085C8E828F8312479F12327809
:102C230012365B7402120A821244CCEE240D12286F
:102C3300CAC0E07404120A82D0E0122D26F508A35C
:102C4300E0F509740F7808120A347405120A82E554
:102C530008F07419120A82E0C0E07406120A82D0E6
:102C6300E0F0741B120A82E0C0E07407120A82D0FB
:102C7300E0F07416120A82E0C0E07409120A82D0EE
:102C8300E0F07417120A82E0C0E07408120A82D0DE
:102C9300E0F0EE24101228CAC0E0740A120A82D0AF
:102CA300E0F0741A120A82E0C0E0740B120A82D0B8
:102CB300E0F07427120A82E0C0E0740C120A82D09A
:102CC300E0F0741C120A82A982AA8389088A097512
:102CD3000A0078081208107C087D007410120A821A
:102CE300AA82AB8312403012085C8518828519834F
:102CF300AA82AB83120B8B022BED122F9B64012252
:102D0300E0F98A828B83A3A3A3A3A3A3A3A3A3E032
:102D130022900363124D369003591228B8120D778F
:102D2300740222F0EE240B1244E2221244E5FA224A
:102D3300F07A567B037953122D3E221218C37A5927
:102D43007B03794B1218C322F0124F452274F212FF
:102D5300040174F81208C0EAFEEBFF8C0A8D0B899C
:102D63000C851882851983AC82AD83758380758247
:102D73001A740812078FF50DEEFCEFFD8518828596
:102D83001983AA82AB831247007003750D01900368
:102D9300B1803BEEFCEFFDE508240BFAE5093400B6
:102DA3001246FF601E850882850983A3A3E0650C94
:102DB3007011850882850983E0650A7004A3E065C4
:102DC3000B6038E5082414F582E50912280812324D
:102DD30070E50845096024E50DA2E040B685088248
:102DE300850983E0650A7004A3E0650B70D5850847
:102DF30082850983A3A3E0650C70C8AA08AB097494
:102E0300080221FEC082C0839003B1023A0074F726
:102E13001204019003B11236AA8012EA2414F58237
:102E2300EB122808123687121215EEFAEFFBEA4B63
:102E330070E99003B1E4F0A3F0024A767F0702063B
:102E43005F74F1120401EAFEEBFF890A8C088D0915
:102E53008E828F83E08C828D83123917AE82AF838B
:102E6300E01240F0124061C41240F0122F02E0540D
:102E7300038C828D8312405FA2E2E4338C828D83C4
:102E830012405E131313541F1240F012405DA2E769
:102E9300E4338C828D83A3A3A3A3122F028E0C8F02
:102EA3000D750E00780C1208107C087D00E50824CF
:102EB30007124CA512085C124D108E0C8F0D780C66
:102EC3001208107C037D00E508240F124CA512089C
:102ED3005CE50AC3940F40148E828F83A3A3A3E0FF
:102EE300C0E0122EF9122808D0E08006122EF91243
:102EF3005149F0022E3FE5082412F582E50922A389
:102F0300A312391B0EAF832274F412040174F91255
:102F130008C0EAFEEBFF8908900334124481600E77
:102F2300122F957009EEFAEFFB120DE3805F900309
:102F330063E06E7003A3E06F70537401650860096A
:102F43007A777B0312470070447A007B021234BF06
:102F53008B0BEA450B7036900366120A5F85188265
:102F6300851983120A6B90036CE0C0E07404120AA3
:102F730082D0E0F07405120A827401F07406120A1A
:102F8300821249FD120B55E9609B120B5B74070219
:102F930028BF122F9B640222124F01A3A3A3A3A352
:102FA300A3E02274F51204018A088B098A828B83B9
:102FB300A3AE82AF83E0F9120BA98E828F83E06404
:102FC300EB600C850882850983A3E064E1700985C1
:102FD3000882850983A3E4F0121FCE750A01780ADB
:102FE300120818850882850983A3E0F5087808127A
:102FF30008187900122D1412085C120CC90253DE52
:10300300EAF0A3EBF0023A0374F61204019003B45E
:10301300E0701B7C0079017A007B00120CF9EA4B0B
:10302300600C8A828B831244816003120C57024422
:103033008AC082C0831234A7401079FF120CF3E9CF
:10304300F8901DB9E493C398500479018002790084
:10305300023A0374F01204018A088B09890B750C78
:10306300008A828B83A3A3A3A3A3A3A3A3E0F91240
:103073000CFF8A0E8B0FAE0EAF0F750A01EE4F6079
:1030830003023134850882850983A3A3A3A3A3A3E1
:10309300124D32850882850983A3A3A3A3A3A3A307
:1030A300123E30124830120CE78A0C8B0DAE0CAF77
:1030B3000DEE4F70030232578E828F83A3A3A3A317
:1030C300E4F0A3F0E508240B123263E0C0E0122819
:1030D30002D0E0F0120DBFEE240CF582EF1244553E
:1030E300E508240EF582E509123658EE240EF58222
:1030F300EF1244C9750C01EE2406F8EF12325F5447
:103103007FF0A3E054FC124F97E0540460030231B4
:10311300BA900C11123E217407780812094F8E825F
:103123008F83A3A3A3A3A3A3E04508F0A3E04509CA
:10313300F08E828F83A3A3A3A312326E7407780841
:10314300120A34E5085407F508E50B607A8E828F7E
:1031530083A3A3A3A3A3A3A3A3A3740212406224E0
:103163000D123B30E0A2E2500B9003511244FDA339
:10317300A31244CCE508700302322CEE2406F8EFC8
:103183003400F9E8FAE9FB8A828B83E0547FFCA3DD
:10319300E054FCFDE50824FFF508E434FFF5097469
:1031A30007780812094FEC4508F8ED4509F98A82BA
:1031B3008B831244CC80728E828F83A3A3A3A3A399
:1031C300A3E04480023133E5087005750A00805995
:1031D3008E828F83A3A3A3A3A3A3E0542060121220
:1031E3001191EA547F245F8E828F83A3A3A3A380CC
:1031F300238E828F83A3A3A3A3A3A3E05410600A07
:10320300121191EA540F240A80DD8E828F83A3A3C7
:10321300A3A37401F0A3E412327874041234B68BBE
:1032230009EA45097003124448E50CA2E050288ED0
:10323300828F83A3A3A3A3124A63F9EEFAEFFB12CF
:103243000CEDE960121244776003123640EEFAEF98
:10325300FB121215750A00A90A024BEE1245C02291
:10326300FAE5093400FB8A828B8322A3A3E0F508E5
:10327300A3E0F5092212327C22124CC1A3A3A3A31B
:10328300A32274F412040174F71208C07E00120C16
:10329300FFEA4B70030233478A828B83A3A3A3A362
:1032A300A3A3A3A3A3E0640660030233478A828B2C
:1032B30083A3A3A3A3A3A3A3E0FF8A828B83123BCD
:1032C30043E0C0E07408120A82D0E012367B124752
:1032D300061244CC120D11EF5408606685188285DE
:1032E3001983124D327A007B00120CE18B0BEA45F5
:1032F3000B704F90036312376B1218ED7C007D0047
:103303007A007B0080288E828F83123665F47003E7
:10331300A3E0F4602D90036312334E12483012156C
:10332300EDE9641A601C7C007D00EEFAEFFB120CE1
:10333300E18A0A8B0BAE0AAF0BEE4F70C97900120C
:1033430018F37E01EEF974090228BF12335222E00A
:10335300FCA3E0FD8E828F8322C082C083EA4B7080
:10336300059003B580068A828B83A3A312356B6015
:10337300258A828B83A3A3A3A3A3A3A3E0540860FA
:10338300E5EC4D60158A828B831236656C7003A35E
:10339300E06D70D280047A007B00023A0374F2126B
:1033A3000401EAFEEBFF890A8C088D097A107B0081
:1033B30012120FEA4B603F8A828B83A3A3A3A3A3BA
:1033C300A3A3A3A3E4123669A3E50A124F07A3122A
:1033D30034038A828B83A3A3A3A3E4F0A3123675D9
:1033E300A3F0124D9BEA240CF582EB12390712333A
:1033F300FCA3A3F0A3F0022201A3F08A828B832211
:10340300A3A3E508F0A3E509F02274F4120401EA8A
:10341300FEEBFF89088C0A8D0BEE4F605574016536
:103423000870147901120CF3E9F8901DBDE493C3FD
:1034330098500F7911806A74046508702F1234A7AD
:1034430040F18E828F83A3A3A3A3A3A3A3A3A3E586
:1034530008123917A31254688E828F83A3A3E4F052
:10346300A3F09003B51244816021800D74026508B6
:1034730060D079C1802BE0F8A31244F6A3A31235E0
:103483006B88828983A3A370ED80039003B5EEF06C
:10349300A3EF1234B68B0BEA450B70031244487941
:1034A300000228C27904120CF3E9F8901DC4E493D6
:1034B300C39822F01234BB227A207B009003B0E041
:1034C300F91212CF22C082C083E9F879009003B5C4
:1034D300801D8A828B83A3A3A3A3A3A3A3A3A3E097
:1034E30068600574FF687001098A828B83A3A31245
:1034F300356B70DE023A0374F7120401EA4B700570
:103503009003B580068A828B83A3A312356B602454
:103513008A828B83A3A3A3A3A3A3A3A3A3E069701A
:10352300E4EC60148A828B83E0240D124D23A2E223
:1035330040D380047A007B00024A76C082C0839025
:1035430003B580068A828B83A3A312356B60128A2C
:10355300828B83A3A3A3A3A3A3A3A3E06970E580A2
:10356300047A007B00023A031228B8EA4B2274F271
:103573001204018A0A8B0B8C0C8D0D7508007509DA
:1035830000EA450B602E9003B580068E828F83A3DD
:10359300A31235BE601EAC0CAD0DEEFAEFFB850A2F
:1035A30082850B83121A4EE9640170DFEEF8EFF99E
:1035B30088088909AA08AB09022201E0FEA3E0FFFB
:1035C300EE4F2274F71204019003B512365B7C00B0
:1035D3007D00800DE8FCE9FD88828983A3A3123670
:1035E3005BE8496030EA687002EB6970E79003B505
:1035F300124830E86A7002E96B88828983A3A3705A
:103603000812365B9003B5800912365B8C828D837A
:10361300A3A31244CC024A7674F7120401EAFEEB28
:10362300FFEE4F6015120D0B12368D1244776003B7
:10363300123640EEFAEFFB121215024A76EE240C14
:1036430012364D1236A222EE241DF582EF3400F518
:103653008322F582EF1236501239FA22F582EF12E5
:1036630036501236822212366D22124F0FA3A3A3B5
:10367300A32212366DA3A3221233FD123682221225
:103683004EFAE022E0FEA3E0FF228E828F83E02445
:103693001C123B341236A28E828F831236A2221260
:1036A30036AAFB12121522E0FAA3E022C082C083DD
:1036B300EAFCEBFDEC4D700479058044EC24FBF54A
:1036C30082ED34FF12447F7007123706E0F4600581
:1036D30012119D80E39003B0E0C0E0123706D0E002
:1036E300F0901DBAE493F97AB77B031211C7E9642A
:1036F30001700B7A007B2012444C7900800279041C
:10370300023A03EC24FFF582ED34FFF5832274F4CF
:10371300120401A2AFE433F508C2AF9003B7123528
:10372300BE6038EE24FBF582EF34FF12447F7A004B
:103733007B209003B0600512444F8005E0F912111D
:10374300D3E4F50AF50B780A120814EEFCEFFD7AC0
:10375300B77B031211C1740212085CE508A2E09260
:10376300AFEEFAEFFB0228C2124D36851882851997
:1037730083AA82AB832274F212040174FC1208C080
:10378300EAFEEBFF750AFE750BFF120CCFE960052D
:1037930079110238FCEE24151228CA6037900C25E3
:1037A300E0C43354E0F8E0333354FC48C0E0EE2483
:1037B30015122805D0E012391712390D8B09EA4585
:1037C300096011750AFFEE240F1228CA440412443B
:1037D300DAD2E0F08E828F831221C66006EE2412C5
:1037E300123904EE24131228CA7010901DC0E493FA
:1037F300C0E0EE2413122805D0E0F08E828F83E020
:10380300A2E750045403801CEE24141228CA701536
:10381300900342E0C0E0EE2414122805D0E0F090BB
:103823000342E004F0EE24111228CA6401701690DA
:10383300060AE0600D90034DE0700A8E828F83E0EC
:1038430070031239018E828F83E064017013EE24BA
:103853000B12365F64027009EE240F1228CA44402B
:10386300F0851882851983AC82AD83EEFAEFFB12E3
:103873000D358A088B0974FE650A700374FFF470B2
:10388300098E828F83A3A3124CB1EA450960668E29
:10389300828F83E0C0E07401120A82D0E0F07402E8
:1038A300120A82124D9F7401120A8285820C85834B
:1038B3000D780C120814EE240F1228051206E8EEF8
:1038C300240E1228CAF50C780C120818900356120D
:1038D30006E87407120A82E0F9AC0AAD0B120D2F49
:1038E300740712085CE9FE74106E700BAA08AB092A
:1038F30012121580027E10EEF974040221FEEE24EA
:1039030011F582EF123650E4F022A31228B879FFA2
:10391300120A9B2212391B22F08E828F83A322C0AC
:1039230082C08374DE1208C08A828B83A3A3A3A3FD
:1039330012365B740E120A82E8F0A3E91239F174AD
:103943000C120A821239EA240DF582EB1228CDC03B
:10395300E0741A120A82D0E0F0124BFEEB123658D2
:103963007420120A821239EA2415F582EB1228CD4B
:10397300C0E07408120A82D0E0F0EA241CF582EB5E
:103983001236587412120A821239EA2411F582EBA4
:103993001228CDC0E07409120A82D0E01239DE7415
:1039A300FFF07401120A8274FFF07402120A827427
:1039B300FFF090803D1206E47404120A82AC82ADDB
:1039C300837407120A82AA82AB83120B7F740412D8
:1039D300085C7900742212085C80251239E222F017
:1039E30085188285198322E8F0A3E9F0EA221233CD
:1039F300FDA31239F922A3E0F8A3E0F9221248301B
:103A0300D083D0820207F474EC12040174EE12081E
:103A1300C08A128B13ECFEEDFF89097426120A8209
:103A2300124CB17428120A82E0F5107429120A822A
:103A3300123B25742B120A82E0F50EA3E0F50F75F5
:103A430008107A1E7B0012120F7402120A821244AB
:103A5300597402120A821244817003023B1E8518B4
:103A630082851983AA82AB8379501243341248307A
:103A73007402120A82123B43A31244597410120AAD
:103A83008212546A7402120A82E0240B123B3074CD
:103A930002F0120A82123B437402F0120A82124E9F
:103AA300F2124D9F7402120A82124845E509F0741E
:103AB30002120A82E0240C123B30E510F074021269
:103AC3000A82123B2DE512F0A3E513F07408120AE3
:103AD30082E50CF0A3E50DF0740A120A82E510F0FA
:103AE300850E82850F83C082C083740D120A82AC57
:103AF30082AD83D083D082740312078FF9740212CC
:103B03000A82AA82AB83120CD5E964017005750899
:103B13000080087402120A82123646A9087412023F
:103B23004CC8E0F50CA3E0F50D22E0241C123B3455
:103B330022F8A3E0123B3B223400F98882898322D6
:103B4300124838A3A3A3A3A32274EE120401EAFE2E
:103B5300EBFF8C088D098E828F83A37408124515A1
:103B6300E060088E828F83A37410F01228C7600967
:103B73008E828F83A3E02408F0EE24151228CA60F6
:103B8300088E828F83A3E004F08E828F83A3A3A386
:103B9300A3A3A3E060198E828F83A3A3A3A3A3A3EC
:103BA300A3E0C3332402F88E828F83A3E028F0EED0
:103BB30024111228CA6005750B0E8003750B008E45
:103BC300828F83A3C082C083EE240D1228CAD083C0
:103BD300D082F8E028250B8C828D83F0EE2411121D
:103BE30028CA600512404028F0850882850983E0D1
:103BF300C394754009750800750900023D2EE0FA6B
:103C03007B00124E4D7003023D2EEEFAEFFB120DB8
:103C13003BEA85088285098312445AEE2402F8EFB1
:103C2300122B3F123E28123D6AF0EE24040808EFDF
:103C3300122B3F12426AA3123D6AA3A3F0EE241390
:103C4300123D50F0EE2414123D50A3F0750A08EE15
:103C530024161228CA6010EE2418124D2FE50824EA
:103C630008124F30750A101228C76016EE241A1274
:103C73004D2F850A0CE508250C124F307408250AD0
:103C8300F50A8E828F83A3A3A3A3A3A3E06059EEB7
:103C93002407F510EF3400F511851082F583E0C099
:103CA300E0123D37122808D0E0123D5AE0C0E0127E
:103CB3003D37122808D0E0123D5AA3123D431208A3
:103CC30010851082851183E0C333FCE433FD850A3C
:103CD3000CE508250C124CA512085C851082851191
:103CE30083E0C333250AF50AEE24151228CA600BB4
:103CF300C0E0123D37122808D0E0F0122802123D2E
:103D030043120810EE240D1228CAFC7D00850B0A0D
:103D13008E828F83A3E0F8E50828F8E5093400F9DB
:103D2300E8250AFAE9124CA812085CAA08AB097F35
:103D33000A02065F850A0CE508250CF582E50922CF
:103D4300E0F50CA3E0F50D750E00780C2212364D4C
:103D5300123D74A3A3A322F0050A8E828F83A3A32B
:103D6300A3A3A3A3A3A322A3A3124F9BA3123D74B4
:103D73002212426EA3A32274F61204018A828B8359
:103D8300E0FC900353123E217402780812094FECB1
:103D93004508FCAD09EA2412123E1B74067808128A
:103DA300094FEC4508FCED4509FDEA2415F582EBC6
:103DB3001228CD6004780180027800E4C8F9ED4947
:103DC300FDEA2411F582EB1228CDF5088809740960
:103DD300780812094FED4509FDEA2416123E1B74BB
:103DE3000B780812094FED4509FDEA2417123E1B13
:103DF300740C780812094FED4509FD8A828B83A361
:103E0300A3A3A3A3A3123E21740A780812094FECBB
:103E1300FAED4509FB02448AF582EB123650E0F5D0
:103E23000875090022E085088285098322A3E0F949
:103E33008508828509832274EE1204018A0A8B0B9A
:103E4300ECFEEDFF750F01E9C394085005790002FC
:103E5300402D8E828F83E9F0124293E96003750F40
:103E6300001242778E828F831242C1EE124BFFEF14
:103E73001242B6C0E0EE2411122805D0E01242AE81
:103E8300C0E0EE2412122805D0E01239177408128C
:103E93004CB9A3A3A3E0601512425FEE2413F5828D
:103EA300EF1244C98E828F83A3E02408F08E828FA1
:103EB30083A3A3A3A3A3A3A3A3E060218E828F83E1
:103EC300A38582088583091242A2EE2415F582EFA9
:103ED3001244C9850882850983E02408F08E828F05
:103EE30083A3A3A3A3A3E0601A8E828F83A38582F7
:103EF300088583091242868E828F83A3A3A3A3A37B
:103F0300124052EE2419123904EE241B123904A371
:103F130012450DE07003023FC1EE2419F8EF34009F
:103F2300F98E828F83A3858208858309E0FAE50AE7
:103F33002AF582E50B1228CD88828983124052FA32
:103F4300E50A2AF582E50B1228CDC0E0EE241A1209
:103F53002805D0E012405288828983E06059F890A6
:103F63001DC3E493C398500575110C8008EE241902
:103F73001228CAF5118E828F83A3E0F8E50A28F58B
:103F83000CE50B124036120810E511C333FCE43381
:103F9300FD7AD97B0A12403012085CEE241B1228EA
:103FA3000574D9F0A3740AF0E511C333F8850882C8
:103FB300850983E0288006EE2418125146F08E828C
:103FC3008F83A3E0F88E828F83E0C3985003023E71
:103FD30050A3E0FA8A08E50A2508F8E50B3400F94E
:103FE300EE241DF582EF1245D5124062C39AC0E05C
:103FF300EE2417122805D0E01244D2602BEE2417CA
:10400300F8EF3400F9880889098882F583E024F2FF
:104013001245B6240EFAA3E03400FB88828983128A
:104023004459124040C398F0A90F023D321211794E
:104033007403223400F50D750E00780C2290034EA4
:10404300E0F9120AC5E9F8850882850983E022F0C0
:10405300850882850983E004F022A3A3A3A3A3F028
:104063008E828F83E02274F41204018A088B09EA9A
:104073001240F7F0EA1313543F1240F0A3A3A3F046
:10408300EAC413131240F7A3A3F0EB1240E9124161
:10409300017409780A120A341240E7124100740AC3
:1040A300780A120A34E50A5401C0E0EC2418F582B8
:1040B300ED122808D0E0124106740B780A120A3474
:1040C3001240E7A3124100740C780A120A3412401A
:1040D300E7A3A3A3A3A3A3A3A3F0740D7808120AD1
:1040E3003402240CE50A54018C828D8322540F8CF4
:1040F300828D832254038C828D83A3A322A3A3A343
:10410300A3A3A3F08A0A8B0B22C082C08379008AFF
:10411300828B83A3A3A3A3A3A3E090034D600FE02B
:1041230070228A828B83A3A3E07019098016E06052
:10413300138A828B83124827900356E06A7003A385
:10414300E06B70E7023A0374F01204018A0A8B0BE6
:10415300890C8C088D091242931242778508828557
:1041630009831242C1E508124BFFE5091242B6C0AA
:10417300E0E5082411F582E509122808D0E012428F
:10418300AEC0E0122EF9122808D0E01245DD740803
:104193001245F6601112425FE50824131245D1124D
:1041A30045DDE02408F0850882850983A3A3A3A342
:1041B300A3A3A3A3E06017850882850983A3124202
:1041C3009EE50824151245D11240622408F08508A3
:1041D30082850983A3A3A3A3A3E06019850882852D
:1041E3000983A3AE82AF8312428685088285098341
:1041F30012405D04F0AA08AB09120D4DE9F50D70EC
:1042030056850882850983A3A3A3A3A3A312426AA5
:104213007014E0FA8A0EE50A250EF8E50B1244BE87
:10422300E50CC39A802112429EE8240EF8E9124459
:10423300BE90034EE0F9120AC58E828F83E0F8E543
:104243000CC39824F2C399C0E0E5082417F582E56E
:1042530009122808D0E0F0A90D024BEEE50A240864
:10426300F8E50B3400F92212426E22E085088285BC
:104273000983A322850A82850B83A3A31242D7E075
:10428300F9EA22E0F8E50A28F582E50B1244E52273
:104293008A828B83124BF3120D4722AE82AF83E0E7
:1042A300F8E50A28F8E50B3400F9221242EAA3A341
:1042B300A3E022123650E81242E3A3A3E022A3A311
:1042C300A3A3A3A3A3A3A31242E31242D7A3A3E0EE
:1042D300F9EAF822E0FA850A82850B83A3A3A322D5
:1042E300F0A3E91242EA22F0850A82850B83A3A395
:1042F300A3A322C082C0837AC57B0379E21218BDCF
:104303007AC57B03023A03C082C083900356023A04
:1043130000C082C08374FE1208C085188285198389
:10432300AA82AB83794B12433412483074020239A8
:10433300D91218BD85188285198322C082C083795A
:104343004A1218BD023A0374F61204019003CDE039
:10435300FE04F0EEF9120CFF8B09EA450970EDEE4D
:1043630060EAF902448A74F0120401EAFEEBFF8C5E
:10437300088D09890A7410120A82E0F50B74111270
:104383000A82E0F50C120E19EA4B7013E50C704229
:10439300A90AAC08AD09EEFAEFFB120E31806EE507
:1043A3000A6021EA2402F582EB1228CD850A08254A
:1043B30008F8E4340013E813F070098A828B83A3AE
:1043C300A37401F0E50C6045E50B70068A828B83CC
:1043D300E4F07401650C7035E50B9003D47004E4CC
:1043E300F0802AE004F0900C12E0F89003D4E0C3CC
:1043F30098401AE4F0900359E06E7003A3E06F70E5
:104403000CEEFAEFFB7901120BA3124413024BEEED
:104413007A017B009003B0E0F91212C922C082C076
:104423008374016A7001EB70077A0112444A8012A7
:10443300900C09124459EA4B60051221888003123B
:104443004413023A037A207B009003B0E0F9121A76
:1044530043223400F583EAF0A3EBF022C082C08349
:10446300900C0B023003C082C083900C0D0230030A
:10447300124F0122EE240CF582EF3400F58312393A
:10448300FAE8492212085C7F0202065FA2F0E433D5
:104493008518828519831244AB79521218C32212EC
:1044A30044AB79421218C322F0AA82AB8322AA0832
:1044B300AB099003B0E0F91211A3223400F9E50827
:1044C300241DF582E509123650E8F0A3E9F0221223
:1044D3004CBDA3A3E022A3F0EE24151244E222F57F
:1044E30082EF3400F583E0221244EF223400F58397
:1044F300E0F8A3E0F98882898322E0F812450322D9
:10450300A3E0F98E828F83A3A322F0EE2418123640
:104513004D22F0EE241612364D2274F4120401EAF1
:10452300FEEBFF7A007B041244171245AC1244CC15
:104533009003657409F0120D598A088B09AC08AD14
:1045430009EE241312280512483012470064017043
:10455300487A0F12459F60418A828B837402124509
:10456300B6FAA3E0FB8A828B83A3E0FC8A828B8367
:10457300A3A3E0FBEC850882850983A3A312445A15
:1045830088828983124834123E281244D9FAA3E060
:10459300FB794A1218C31244B10228C27B001211DC
:1045A300978A088B09EA4509229003361239FA9053
:1045B3000C0D22F0EE241DF8EF1245C022123B3BF6
:1045C300E0221245C9223400F5837401F022F582FA
:1045D300E509123650E8F0A3E9221245E12212451B
:1045E300E522F0850882850983A3221245E5A3A36A
:1045F300A3A3221245EEA3A3E022124A07120DAD94
:1046030022EE2417F582EF1245C9120D59EE241A32
:1046130012364DEAF0A3EBF02274F412040174F3A2
:104623001208C08908EAFEEBFF7C0D7D0079008546
:104633001882851983AA82AB83121185EE241D1279
:104643002805124EF2A3E0F8741F58600A7901128C
:10465300189379000246F7E8A2E55008740C120A91
:10466300827401F0E8A2E75008740B120A82740105
:10467300F0E8A2E6740A5008120A827401F0800876
:10468300120A82E064017005EE24138003EE241500
:10469300124D2F7402120A82AA82AB831218AB1234
:1046A30028021247051244CC740A120A82E06401FC
:1046B30070331221BB703B120D658A0A8B0BA80A5B
:1046C300A90BEE240B1228CA687003A3E0697022B9
:1046D300120D59EAFCEBFD7402120A82AA82AB8323
:1046E300124700600D851882851983AA82AB831255
:1046F3000B9DA908740D0228BFEEFAEFFB1218A553
:10470300E922E012470A22F8A3E0F9851882851905
:10471300832274F612040174F31208C08A088B0909
:10472300ECFEEDFF7C0D7D007900851882851983F1
:10473300AA82AB83125073A3A3A3A3A3A3A3A3A38C
:1047430012479F1247A8F8A2E55008740B120A8279
:104753007401F0E8A2E75008740A120A827401F0A7
:10476300E8A2E6EE5004241380022415124D2F74A0
:1047730002120A82124791A3A3E0C0E0740C120A4A
:1047830082D0E01249FF120B97740D024487AA826C
:10479300AB831218AB85088285098322E012470A8E
:1047A300E8F0A3E922F012364A124EF6A3E022748F
:1047B300F712040174E11208C0EAFEEBFF8E828F48
:1047C30083124834A3A3A3E0A2E050518E828F83C7
:1047D30012231B8A828B83A3A3A3A3A3A3E054FE68
:1047E30012484C8A828B83124845E0F98A828B8374
:1047F300E0241CFAA3E0123266124830120D53E98A
:10480300701B741D120A8212483F7011851882852D
:104813001983AC82AD83EEFAEFFB120D9B024A7152
:104823008E828F83A3A3A3A3A3A3A3A3A31228B8B6
:104833002212483822124EFAA3A3A322123682640C
:104843000422E0241B123B34221239E2AC82AD83F2
:1048530022E9F87900740468600A740A68600574D0
:1048630003687001090207F474F61204018A828B4B
:10487300837420F0A3A37401F0120B498A088B09F7
:10488300AE08AF09EE4F60108E828F837401F090F3
:1048930003A3E07003124604EEFAEFFB02448AC05E
:1048A30082C0839003B97401F0E9A2E35003740357
:1048B300F0E9A2E15004E0D2E2F0023A0374F61206
:1048C300040179007C008A088B097808120619F81C
:1048D300FF07F348F148F148F148F148EA48EE4848
:1048E300F348E7480C80097C0480050C80F67C08BB
:1048F3009003B9E05C6003098003EC6001090244A2
:104903008A74F61204018A828B83E07012A3124424
:1049130081600C8A828B8312482F12198980047A52
:10492300007B0002448A74F512040174F31208C078
:104933008A088B09ECFEEDFF750A12EA450970053A
:1049430079000249F8900356E065087004A3E06516
:10495300097014120D59EAFCEBFD1246FC70057543
:104963000A018003750A00851882851983E4F0041F
:10497300120A82E508F0A3E5091249FF120B0DE9BB
:1049830060277403120A82AA82AB83120AF5E964D0
:10499300017016750A017403120A82AC82AD831288
:1049A30046FC6021750A00801C7412650A7016901B
:1049B30003A2E06402700EEEFCEFFDAA08AB09123D
:1049C3000B25E970DFEEFCEFFDAA08AB09120E1F01
:1049D300E9F8740A687005750A01801774A0687095
:1049E30012EEFCEFFDAA08AB09120E2BAA08AB09C5
:1049F300120E3DA90A740D0253DB7402124A0322FC
:104A0300124A07221239E2AA82AB832274F71204F4
:104A130001EAFEEBFF8E828F83A3A3A3A3A3A3A329
:104A2300A3E06015EE24151228051228A8120DC55F
:104A3300E964017004790180258E828F83A3A3A387
:104A4300A3A3A3A3E06015EE2413122805124A635F
:104A5300FAA3E0FB120DC5E9640160D97900801364
:104A6300123352A3A3A3A3A3A3A3A3A3E022741F5C
:104A730012085C7F0102065F74F012040174FD12D8
:104A830008C08A088B09ECFEEDFF890B7413120A28
:104A930082E0F50C750A017401120A827404124F44
:104AA3002A6048E50C601DEA2417F582EB12514990
:104AB300124F188A828B83E0D2E7F0EA2414F5823E
:104AC300EB123907124BFEEB1244EB740312546CD6
:104AD300EE88828983A3A3F0EF88828983A3A3123C
:104AE30033FC123403120B43E9F50AA90A740302D7
:104AF3004BEB74EC12040174F51208C08A0A8B0B99
:104B0300890C8C0E8D0F741F120A82E0F50D742030
:104B1300120A82E0F510A3E0F5117E01EE120A827B
:104B2300740AF0E97007E50DC333240AF0124CD080
:104B33007003024BD2124CE57409F0A3E50CC433A5
:104B430054E0450D124CF7E50C702D7C008023ECEE
:104B5300C333F8E433F9E51028F8E51139F988820D
:104B63008983124BDF88828983122B32F0A30EAF25
:104B7300830CECC3950D40D7E5082417F582E509AE
:104B83001245C5120D59E508241AF582E5091244A8
:104B9300557403120A82AC82AD83AA0AAB0B120AC4
:104BA300FBE96019E5082416F582E509124BD912D1
:104BB3000A82A882A983E50824181244C5850882BD
:104BC300850983125468AA08AB09120B43E9FEEE68
:104BD300F9740B024CC81245C9740322E08E828F0C
:104BE30083F0A3AE82AF832212085C7F0802065FC4
:104BF3001236AAF9EA2400E439FB22EA240BF582EF
:104C03002274EE1204018A0C8B0D890E8C088D0917
:104C13007412120A82E0F50F7413120A82124CB155
:104C230090057B1244816077E50FC333F8E433F9D1
:104C3300E8240EFAE93400FB1211978A108B11AEA7
:104C430010AF11EE4F60588E828F8374D4F0A3A3FC
:104C5300E50CF0A3E50D124CB9E50EF0AC08AD0977
:104C6300EE2405FAEF124F33EE240D122805E50F5B
:104C7300F0850A08850B09750A007808120810E503
:104C83000FC333FCE433FDEE240EFAEF124CA812EB
:104C9300085CEEFAEFFB90057B124EF2121A4E02FD
:104CA3003D32FAE5093400FB121179740322E0F571
:104CB3000AA3E0F50B22124CBD22124CC122123979
:104CC3001BA3A3A32212085C7F0C02065F85188234
:104CD300851983AA82AB83120DAD8A088B09EA4535
:104CE3000922EA240BF582EB1244E5FEA3E0FF8ED2
:104CF300828F8322F0A3AE82AF83AC0EAD0FEEFAA8
:104D0300EFFB124D09221218AB124D1022EE2408AC
:104D1300FEEF3400FF22E0FA8E828F83A3A3E0220A
:104D2300FEA3E03400FF8E828F83E02212364D1201
:104D33004D3622E0FCA3E0FD221228B8120D4122D9
:104D430074F6120401EAFEEBFF9003BA8013888223
:104D53008983E06E7003A3E06F603A88828983A33E
:104D6300A312448170E87A047B0012120F8A088B25
:104D730009A808A909E849601C88828983124D9F04
:104D83009003BA12483088828983A3A312445990AE
:104D930003BA1244CC02448A8A828B83EEF0A3EFD7
:104DA300F02274F41204017E009003BA80070E8887
:104DB300828983A3A312448170F4EEC333FAE433EC
:104DC300FB124E4D607E7F009003BA802488828957
:104DD30083124D32EFC333FAE433FBE5082AF5823D
:104DE300E5093BF583ECF0A3EDF00F88828983A3FB
:104DF300A312448170D79003AB1221F57003A3E093
:104E03006978087019120814EEF50A780A1208185E
:104E13007C777D0379009003AB124E58801A1208F9
:104E230014EEF50A780A1208187C777D037900904E
:104E330003AB124830120DD7740312085CAA08ABF7
:104E430009121215120B5B0228C212120F8A088B69
:104E530009EA4509221228B8120DDD22C082C08357
:104E630080128A828B83A3A312365B9003BA124407
:104E7300CC1212159003BA12356B70E6023A037422
:104E8300F61204019003631236879003CE124EE1AB
:104E93001244CC7ACE7B0379501218C39003CE12FE
:104EA3002414FAEFFB120E379003CE1236879005C7
:104EB3007D12448160257A067B00121197EA4B60CC
:104EC3001A8A828B8374D5F0A3A3E4124F070412CA
:104ED3004F1890057D124EF2121A4E02448A124E5A
:104EE300E522E0F8A3E0F9900363228E828F831218
:104EF3004EF622124EFA22E0F8124F0022A3E0F5FA
:104F030083888222124F0B22124F0F22F08A828B48
:104F130083A3A3A322124F0BA3EEF0A3EFF022F57A
:104F230082EF1244E5F9221245FDEA4B22FAE50924
:104F33003400FB1218AB22124504A3A3A3A3A3A31B
:104F4300A322901DBBE4932401F8E43400F97A0210
:104F53007B002274F71204017E00800412551F0E99
:104F630012504340F77E00EE124F8274FEF0A3040A
:104F7300124F97E4F00EEEC3940340EB024A7675AA
:104F8300F003A4F8A9F074BC28F8740339F98882F3
:104F93008983A322124F9B22F0888289832274F78C
:104FA3001204017F0080010F901DB8E493F8EFC352
:104FB300985026EF12512F6A7003A3E06B70E8122A
:104FC30054CC6C7003A3E06D600A74FF6C700374BF
:104FD300FF6D70D312503A80047A007B00024A7648
:104FE30074F61204017CFF7DFF7AFE7BFF120E0133
:104FF300EA4B70407508008036E50875F017A4F891
:10500300A9F0747428F5827409125141600C747309
:1050130028F58274091251417013746528FE7409CE
:1050230039FF8E828F8312514EEEFAEFFB05081281
:1050330050A940C502448A746528FA740939FB22D1
:10504300901DB8E493F8EEC3982274F7120401EAB2
:10505300FEEBFFEE4F601012506D74FEF0A30412CE
:10506300547214F0A304F0024A767C177D00790091
:105073001211858E828F832274F7120401EAFEEBEC
:10508300FF7508008018E50875F017A4F8A9F01259
:1050930054D77003A3E06F6003125527050812501D
:1050A300A940E3024A76901DB8E493F8E508C39853
:1050B3002274F6120401120E018A088B09A808A9AA
:1050C30009E849600AE8240DFAE93400FB80047A10
:1050D300007B0002448A74F41204018A0A8B0BECED
:1050E300FEEDFF750800750900802EE50975F017C0
:1050F300A4F8A9F0125512601EE50912512F650A92
:105103007004A3E0650B700375080AEEFCEFFD1253
:1051130053CE60034308A00509901DB8E493F8E556
:1051230009C3985004E50860C202240C75F017A463
:10513300F8A9F012513A22746528F582740939F5F9
:1051430083E022F582EF123650E4221228B8120CC3
:105153003922124F9BA3A3A3A3A3A3A3A32274F255
:105163001204018A088B09ECFEEDFF740E120A8209
:10517300124CB1750C007C007D018010121191E579
:105183000CF5F0EA84ACF0750C007D007800790032
:10519300800312530B125367400302522DE8FAE9BE
:1051A300FBEA75F017A4FA85F00D75F017EBA4254B
:1051B3000D1253437003A3E0F460D7125321650823
:1051C3007004A3E0650960CA1253216E7003A3E063
:1051D3006F60BF125321650A7004A3E0650B60B2D0
:1051E300E8FAE9FBEA75F017A4FA75F017EBA425C2
:1051F3000DFB74732AF582740912530250947401DF
:105203006D050C608DE50CC39C4087E875F017A411
:10521300F8AAF075F017E9A42AF9746528F58274E1
:105223000939F5831248300252FF78007900800370
:1052330012530B12537440030252E6E8FAE9FBEAF5
:1052430075F012A4FA85F00D12535364FE7003A394
:10525300E0F460DC12534965087004A3E06509605B
:10526300CF1253496E7003A3E06F60C412534965B4
:105273000A7004A3E0650B60B7E8FAE9FBEA75F08E
:1052830012A4FA75F012EBA4250DFB74F42AF5822F
:1052930074071253025099E8FAE9FBEA75F012A475
:1052A300FA75F012EBA4250D12531464016081E02A
:1052B3006402700302523374016D050C70030252D1
:1052C30033E50CC39C5003025233E875F012A4F883
:1052D300AAF075F012E9A42AF974EB28F582740791
:1052E300025224E50C6011EC700E7401650C60032E
:1052F30002517F7C0102518A7AFE7BFF0222013B2D
:10530300F583E014C3940622E8240108E93400F984
:1053130022FB74EF2AF58274073BF583E022E8FA57
:10532300E9FBEA75F017A4FA75F017EBA4250D1243
:10533300533622FB74652AF58274093BF583E02218
:1053430012533664FE22E8FAE9FBEA75F012A4FA76
:1053530075F012EBA4250DFB74EB2AF58274073B61
:10536300F583E022901DB8E493FAC3E89AE9940028
:1053730022901DB1E493FA740193FBC3E89AE99B6D
:105383002274F51204018A088B09ECFEEDFF750AFD
:10539300008002050A901DB8E493F8E50AC398500B
:1053A30028EEFCEFFDE50A75F017A4F8A9F01253F7
:1053B300CE60E0E50A75F017A4F8A9F0746528F546
:1053C30082740939F5831234058010746728FA74DE
:1053D3000939FB1218A5E92212085C7F0302065F54
:1053E30074F01204018A088B098C0A8D0B890C1244
:1053F3000E078A0E8B0FAE0EAF0FEE4F6055125095
:105403006DE508F0A3E50912547212546AE50C60C5
:105413000AEE240F122805E50C8006EE240F125421
:1054230062F09003D0124481601A9003AAE06401F1
:105433007008EE240E1251468010EE240E12280539
:1054430074078006EE240E125462122D4B1202B022
:10545300125459024BEEEE240D12364DE8F022128F
:10546300364D740122A3A3E50AF0A3E50BF0221243
:10547300327CA32274F51204018A088B09ECFEED39
:10548300FF750A00800F1254D77003A3E06F600307
:10549300125527050A901DB8E493F8E50AC39850FE
:1054A30025E50A75F017A4F8A9F01254CC65087025
:1054B30004A3E0650970CF746F28F582740939F588
:1054C30083124D9F80CD0253DE746F28F5827409D9
:1054D30012514122746F28F58274091251416E22D0
:1054E30074F7120401EAFEEBFF7508008019E50862
:1054F30012512F6E7003A3E06F700A1255127005DC
:10550300E50812552005081250A940E2024A7674B4
:105513006728FA740939FB120AF5E922EE75F017C8
:10552300A4F8A9F012503A120E0D22124F9B123911
:10553300FAE84922C082C08374F81208C085188231
:10554300851983AC82AD8375838075822A740812B2
:10555300078F851882851983AC82AD831247006457
:1055630001700479008002790174080239D9126844
:10557300D9F9EA22E0F508E4F509F50AF50B2274F6
:105583000912085C7F0402065FEE2412FAEF34006E
:10559300FB120FB7E9227905120FC3740422E0242A
:1055A300F5C394122212162F8A0C8B0D8C0E8D0FBD
:1055B3002212109B9007B61270757A147B0022FB9F
:1055C3001255CDE8F0A3E9F0EE221255D58A828B6D
:1055D30083228A828B83E024FFF8A3E034FFF9223D
:1055E300EE240E1272CB74012212562D12085C7F28
:1055F3000802065F125627A2E5221272CEE4F022B9
:105603007F0502065FE508126C14E509125627228E
:105613007AD57B031211C174022212562122EE2481
:1056230010F582EF3400F583E02212108F74042208
:10563300F582EF125627F822EE240DF582EF12566B
:1056430027640122E0FEA3E0FFEE4F22F582EF1272
:10565300562722FAEF3400FB79E112171922F0EEF4
:10566300FAEFFB22EE240EF582EF1272CE22F0A3A4
:10567300F0025DBCF582EB125627FA2212085C0297
:105683006217C082C08374FE1208C080077AD57B7C
:10569300031256C39003D512667F70F19003D7129D
:1056A300667F60097AD77B031256C380EF9003D5D8
:1056B300E4F0A3F09003DBF0A3F0A3F074028016F0
:1056C3001211BB851882851983EAF0A3EB12786E59
:1056D300120FA522741112085C025DBC74F6120449
:1056E30001E9FF8F08744F12679E741D1267A3FEB2
:1056F3008E08FA7B00121197EA4B6017EA2508F827
:10570300EB3400F98A828B8312715EA3A3A3A3E413
:10571300F080227A027B00121197EA4B60138F0804
:10572300747012679E741D125AA6F0A3741A125A4B
:10573300BB7A007B00027219E9FDEAFC74062DFABC
:10574300ECA2E0501EEA75F00A84A8F0E860147435
:105753000A2AC398FAE8C394054004740A2AFA741F
:105763000B2AFAEDC394134004781480027806E8F8
:105773002A2409F8E43400F97A0A7B001202B0E81B
:10578300F90207F4C082C083900405E05402600A62
:105793001218FFE96004790180027900025DBCC040
:1057A30082C083900405E0540260149003DBE07030
:1057B3000A12667C60091257C75004790180027986
:1057C30000025DBC9003DEE02410125C96A2E72287
:1057D300C082C08390803AE0F89003DDE0C3985024
:1057E3000512119780047A007B00025DBCC082C061
:1057F30083120FA57900025DBCC082C08374FE12C0
:1058030008C0851882851983125962600D1460657A
:1058130024FE700302589C025926900796E0640FF9
:105823006018120F7BE9701285188285198312683C
:10583300D4900BDF125D1D121A4E9007BEE0C0E03C
:105843008518828519831263BFD0E0125948F81274
:1058530059367414125948FCA3E0FD7AD77B03121E
:1058630011B5E5A8F8C2AF9003DD1259597920129A
:105873000F690256BF120F75E98518828519836077
:1058830011125D1D740D125948FAA3E0FB1218F9A9
:1058930080E0125D1D741580BB125C9C700302597D
:1058A300268518828519831271EFC0E012593BD007
:1058B300E01259482402F8125B8D2401FAA3E03464
:1058C30000FB8882898312596214C3940950201201
:1058D3005C9CFA851882851983A3127A95A3A3A3E6
:1058E300E0F8749928F582741D1267A36A600F1299
:1058F300593BE06408702C125C9C64087025851881
:1059030082851983E0F8125CA214125966240AC036
:10591300E0851882851983125936D0E0125966043E
:10592300025857851882851983AA82AB83120FA563
:10593300025875A3125D2822851882851983127A6D
:10594300A2A3A3A32212594C2212795EE022E5A856
:10595300F8C2AF9003DCE004F0E8A2E792AF22EADA
:10596300F0A3EB12594CF8125CA7A3E022C082C04B
:10597300839003E012667F6008125937121A4E8033
:10598300027900025DBC74F7120401EAFEEBFFEE3C
:10599300240D1255E6F0EE242F12564FC0E0125696
:1059A30067D0E0F0EE243012564FC0E0EE2412121E
:1059B300566AD0E0126F25C0E0EE241312566AD067
:1059C300E0F0EE242B12566A1206E8EE2422FCEFD6
:1059D3003400FDEE242D12564FF9126D1C12085C93
:1059E300E97007EEFAEFFB120EAF026217C082C036
:1059F30083120F7BE96004792080027901025DBC88
:105A0300C082C083EA126C0BE0D2E0025673C082FC
:105A1300C083126C041256417011125AB0400C8AA2
:105A2300828B83A3E0F9120F6F8069125A9A125680
:105A330052A2E650128A828B83A3E0F9900BE11203
:105A43005D1D121A4E804D126C04125641700D12D8
:105A53005AB050088A828B83743080358A828B8354
:105A6300A3E0641B8A828B83700474228023A3E0E7
:105A7300700F126C04125636747B28F582741D80E5
:105A83000D126C04125636747028F582741D125A66
:105A9300A6125ABB025DBCEA125AA1EB22EE240FF6
:105AA300F582221272CEE4938A828B8322EA125AFF
:105AB300A1EB125627A2E322F0900400E0F91211A1
:105AC300A32274F7120401E9FE12667C602EEE70C5
:105AD3002E9003DE1272BCE4F09003DE1268D4123F
:105AE3000E9D9003DEE0240E1257CD5003127381F6
:105AF3009003DEE4F0A3F07910120F6902621774C9
:105B03001B6E7010125B91640570C69003DE1272F7
:105B1300BCEE80C474E96E70509003DEE02411F88B
:105B2300125B8D60E69003DEE0240E181818125BFA
:105B33008DA2E29003DEE0400C2411125B8A14F084
